:020000040800F2
:10000000F00B0020555A0008FD010008FF01000810
:1000100003020008070200080B02000800000000AD
:100020000000000000000000000000000F020008B7
:100030001102000800000000130200081502000869
:100040006F5A00086F5A00086F5A00086F5A00086C
:100050006F5A00086F5A00086F5A00086F5A00085C
:100060006F5A00086F5A00086F5A000827020008EC
:100070006F5A00086F5A00086F5A00086F5A00083C
:100080006F5A00086F5A00081D0200086F5A0008D6
:1000900063020008BD020008170300086F5A000839
:1000A0006F5A00086F5A00086F5A00086F5A00080C
:1000B0006F5A00086F5A00086F5A00086F5A0008FC
:1000C0006F5A00086F5A00086F5A00086F5A0008EC
:1000D0006F5A000829020008490200086F5A0008F8
:1000E0006F5A00086F5A00086F5A0008DFF80CD0EA
:1000F00005F03AFD00480047BB010008F00B002066
:1001000010B502F0B5FF04464FF4FA7221463348A9
:10011000006802F0B6FFA0B100203149087003204A
:100120004870002088701020C870002008710120DD
:1001300048710622002003F0DCF902F099FF2749FC
:10014000086010BD10B502F093FF04464FF4FA7238
:1001500021462448006802F094FFC8B12248007884
:1001600090B10020204908701D4908700620487091
:10017000002088700520C87003200871E8204871AD
:100180000622002003F0B5F902F072FF154908605D
:1001900010BD10B5FFF7B4FF10BD70B504460E4694
:1001A0000025E5784FF6FF7000EA05252079054324
:1001B00029460EA005F016FD70BD00F0D7F800F03E
:1001C000C5F802F0ABF902F0C9F900F0D1F803E08C
:1001D000FFF7DFFF03F09EF8FAE7000000000020C1
:1001E00030030020040000200800002044697374DC
:1001F000616E63653A25756D6D0A0000704700BF3A
:10020000FEE700BFFEE700BFFEE700BFFEE7704766
:100210007047704710B502F009FF10BD10B5454892
:1002200000F0CDFE10BD704710B540F22551424898
:1002300005F0DCFA38B1404805F058FAC4B221465E
:10024000002003F0CAF810BD704710B540F22551E8
:100250003A4805F0CBFA10B1384805F047FA10BD1E
:10026000704710B5364A0021364803F0A6FE3448E0
:10027000007A042806D101203349087130484068CB
:10028000086005E00020304908712D4800680860CA
:100290002B48807A2C4988712948407A10B900206F
:1002A000487102E00120284948712748C01D2449AF
:1002B0000B310A6802604968416010BD10B5204AE0
:1002C0000121204803F079FE1D48007A042806D158
:1002D00001201D4908711A484068086005E00020A7
:1002E000194908711648006808601548807A16494F
:1002F00088711348407A10B90020487102E001204B
:10030000114948711048C01D0D490B310A6802603F
:100310004968416010BD10B54FF48061094803F091
:10032000CFFF20B14FF48061064804F064F810BD9F
:10033000704700000024014000380140004C00409C
:1003400044030020006400405803002010B505F06D
:1003500000FB4FF4A06003F013F90121084604F0FC
:100360009BFE0121FC4804F0ACFC10BD72B6704746
:1003700062B67047704700BFF848006800F4E0605C
:10038000F7490843001DF5490860BFF34F8F00BFD0
:1003900000BFFEE770B50346F24800684FF47A727A
:1003A000B0FBF2F000FB03F1B1F1807F00D31EE05F
:1003B00021F07F40401E4FF0E022506150170F2285
:1003C000002808DA1407260EE44C0C3400F00F0560
:1003D0002D1F665503E01407250EE34C255400BF7E
:1003E00000204FF0E02290610720106100BF70BD37
:1003F00030B505460C46DD4804602846FFF7CAFFC5
:1004000030BDF0B503460025002000240021D54E64
:1004100036684FF47A77B6FBF7F6B6FBF7F606FBCD
:1004200003F24FF0E026B069904201D3841A09E04C
:10043000CC4E36684FF47A77B6FBF7F6761E064454
:10044000B41A01250DE04FF0E026B16925B9A142AB
:1004500001D9814205D905E0A14202D8814200D9E3
:1004600000E0F0E700BFF0BD10B5C048006810B173
:10047000BE480068804710BDF8B505460E4600240A
:1004800003208DF80200BA480670BA48056000BF24
:1004900057E0002004EB8401B64A126802EB8101A8
:1004A000C88104EB8401B34A126802EB810108821F
:1004B00004EB8401AF4A126802EB8101887404EBFB
:1004C0008401AC4A126802EB8101C87404EB840118
:1004D000A84A126852F82100012104F0DDFD04EB66
:1004E0008400A449096801EB80000089ADF8000090
:1004F00004EB84009F49096801EB8000807A0128A1
:1005000003D148208DF803000FE004EB84009949E3
:10051000096801EB8000807A022803D128208DF839
:10052000030002E004208DF8030004EB8401914AEB
:10053000126802EB81014868694604F0EDFA601C1C
:10054000C4B28B4800788442A3DBF8BD014601EBBE
:100550008100884A126802EB8000008A70470021FF
:1005600000EB8002834B1B6803EB82021182704711
:10057000014601EB81007F4A126802EB8000807C1B
:10058000704770B50024002500BF7AE004EB8402B8
:10059000784B1B6803EB8202118904EB8402754BD4
:1005A0001B6803EB8202506804F049FB08B101208C
:1005B00000E00020054604EB84006E49096801EB69
:1005C0008000C07AA84201D0012000E0002005464A
:1005D00004EB84006749096801EB8000C07CA842F5
:1005E0003ED104EB84006349096801EB8000C089B7
:1005F000401C04EB84015F4A126802EB8101C88150
:1006000004EB84005B49096801EB8000C08904EBBE
:100610008401584A126802EB8101898988422EDBE5
:1006200004EB84005349096801EB8000818904EBE5
:100630008400504A126802EB8000C18104EB840000
:100640004C49096801EB8000857404EB8401494A38
:10065000126802EB810101F1100002F064FA0EE071
:10066000002004EB8401434A126802EB8101C88137
:1006700004EB84003F49096801EB8000C574601CED
:10068000C4B23B480078844280DB70BDF8B50546B3
:100690000E46002403208DF80200374806703748C4
:1006A000056000BF99E0002004EB8401334A126822
:1006B00002EB8101C88104EB84003049096801EB39
:1006C0008000007B08B1012000E0002004EB8401E1
:1006D0002A4A126802EB8101087404EB8401274A5C
:1006E000126852F82100012104F0D6FC04EB8400CA
:1006F0002249096801EB80000089ADF8000004EB95
:1007000084001E49096801EB8000807A012803D12A
:1007100014208DF8030002E010208DF8030004EB94
:100720008401164A126802EB81014868694604F0A8
:10073000F3F904EB84001149096801EB8000C07AE9
:1007400088B304EB84030D4F3F6807EB83031B7CE6
:10075000B3B9012315E00000000230000CED00E009
:100760000000FA051803002000E400E00C0000205F
:100770001000002014000020180000201C000020A1
:1007800000231A4604EB8403FE4F3F6807EB830304
:10079000198904EB8403FB4F3F6807EB8303586818
:1007A00004F06FFA17E0FFE704EB8403F54F3F68AE
:1007B00007EB83031A7C04EB8403F24F3F6807EBDB
:1007C0008303198904EB8403EE4F3F6807EB83032F
:1007D000586804F056FA601CC4B2EB4800788442B2
:1007E000FFF661AFF8BD014601EB8100E54A1268F2
:1007F00002EB8000C0897047002100EB8002E14BD2
:100800001B6803EB8202D181704700EB8002DD4B55
:100810001B6803EB820211747047014601EB8100F3
:10082000D84A126802EB8000007C704700EB800120
:10083000D44A126802EB8101097C09B9012100E068
:10084000002100EB8002CF4B1B6803EB8202117486
:10085000704770B504460D4604EB8400C949096829
:1008600001EB8000057404EB8400C649096801EBC4
:100870008000C07AE0B104EB8403C24E366806EB18
:1008800083031B7C0BB9012300E000231A4604EB11
:100890008403BC4E366806EB8303198904EB84039A
:1008A000B84E366806EB8303586804F0EAF916E0A0
:1008B00004EB8403B34E366806EB83031A7C04EB27
:1008C0008403B04E366806EB8303198904EB840376
:1008D000AC4E366806EB8303586804F0D2F904EB9B
:1008E0008401A84A126802EB810101F10E0002F0B6
:1008F0001AF970BD70B50446002504EB8402A14BC3
:100900001B6803EB8202118904EB84029D4B1B6878
:1009100003EB8202506804F09FF908B1012000E067
:100920000020054604EB84009649096801EB80002D
:10093000C07AA84201D0012070BD0020FCE770B54C
:10094000044604EB84008F49096801EB8000007CB9
:1009500008B9012000E0002004EB8401894A1268F4
:1009600002EB8101087404EB84008649096801EBFD
:100970008000C07AE0B104EB8403824D2D6805EB62
:1009800083031B7C0BB9012300E000231A4604EB10
:1009900084037C4D2D6805EB8303198904EB8403E4
:1009A000784D2D6805EB8303586804F06AF916E06A
:1009B00004EB8403734D2D6805EB83031A7C04EB71
:1009C0008403704D2D6805EB8303198904EB8403C0
:1009D0006C4D2D6805EB8303586804F052F904EB65
:1009E0008401684A126802EB810101F10E0002F0F5
:1009F0009AF870BD70B5002400BF47E004EB840096
:100A00006049096801EB8000C07AE0B104EB84031F
:100A10005C4D2D6805EB83031B7C0BB9012300E0C3
:100A200000231A4604EB8403564D2D6805EB83031F
:100A3000198904EB8403534D2D6805EB8303586833
:100A400004F01FF916E004EB84034E4D2D6805EB0E
:100A500083031A7C04EB84034A4D2D6805EB830362
:100A6000198904EB8403474D2D6805EB830358680F
:100A700004F007F904EB8401424A126802EB810199
:100A800001F10E0002F04FF8601CC4B23E4800783D
:100A90008442B3DB70BDF8B505460E460024032042
:100AA0008DF80200394806703948056000BF96E0AD
:100AB0003749096801EB04110868012104F0ECFAD8
:100AC0003348006800EB04100089ADF8000030489E
:100AD000006800EB0410807A18B904208DF8030038
:100AE0002EE02B48006800EB0410807A012803D127
:100AF00048208DF8030023E02548006800EB04102F
:100B0000807A022803D128208DF8030018E02048BD
:100B1000006800EB0410807A032803D110208DF8C0
:100B200003000DE01A48006800EB0410807A0428E6
:100B300003D114208DF8030002E048208DF8030053
:100B40001349096801EB04114868694603F0E4FFA2
:100B50000F48006800EB0410807A032806D00C4888
:100B6000006800EB0410807A042836D10848006839
:100B700000EB0410C07AF8B1054B1B6803EB0413BB
:100B80001B7B07E01C000020180000202000002034
:100B9000240000200BB9012300E000231A46FE4B7D
:100BA0001B6803EB04131989FB4B1B6803EB04134D
:100BB000586804F066F810E0F74B1B6803EB041369
:100BC0001A7BF54B1B6803EB04131989F24B1B6866
:100BD00003EB0413586804F054F8601CC4B2EF48E7
:100BE00000788442FFF664AFF8BD70B504460D4648
:100BF000E948006800EB0410807A032806D0E64834
:100C0000006800EB0410807A042824D1E2480068D0
:100C100000EB0410C07A88B10DB9012300E0002375
:100C20001A46DD4B1B6803EB04131989DA4B1B686A
:100C300003EB0413586804F024F80CE0D64A126859
:100C400002EB04121189D44A126802EB04125068B4
:100C50002A4604F016F870BD10B50446CE48006868
:100C600000EB0410807A032806D0CB48006800EB24
:100C70000410807A04280BD1C74A126802EB0412D0
:100C80001189C54A126802EB0412506803F0F5FF9F
:100C900010BD10B50446C04A126802EB0412118957
:100CA000BD4A126802EB0412506803F0C8FF08B195
:100CB000012000E00020B849096801EB0411C97A5D
:100CC000884201D0012010BD0020FCE770B588B03B
:100CD00005460E46002400208DF80B00B048067033
:100CE000B04805604FF4404004F03AF90121480251
:100CF00004F0D2F9AC4802F0B1FC12208DF80400E7
:100D000000208DF805008DF8060001208DF8070001
:100D100001A802F03AFC002003908DF810008DF835
:100D200011004FF4602005900020069001208DF8FE
:100D30001C0003A99C4802F0B8FC00BF13E004EBC0
:100D400084009849096801EBC0008088ADF808006C
:100D500004EB8401934A126852F8310002A903F0AF
:100D6000DBFE601CC4B28E4800788442E7DB0121C0
:100D70008D4802F0C6FC8C4802F0E5FC00BF8A48B2
:100D800002F0E6FC0028FAD1874802F0EBFC00BF35
:100D9000854802F0ECFC0028FAD101224FF40871DA
:100DA000814802F0C4FC0020804908800846008881
:100DB00000EB80007B4A126802EBC000017C052337
:100DC0000122794802F009FD0121774802F0D9FC9F
:100DD00008B070BD014601EB8100724A126802EB57
:100DE000C000408C7047002100EB80026D4B1B68F7
:100DF00003EBC20251847047014601EB8100694A4E
:100E0000126802EBC000406A704710B500246748C2
:100E100000886349097888427EDB00BF80E004EBEC
:100E200084006049096801EBC000008C401C04EBA1
:100E300084015C4A126802EBC101088404EB84005F
:100E40005849096801EBC000C06904EB8401554AA8
:100E5000126802EBC101098B084404EB8401514A7A
:100E6000126802EBC101C86104EB84004D490968B6
:100E700001EBC000008C04EB84014A4A126802EBCB
:100E8000C101498A884249DB04EB8400454909686D
:100E900001EBC000C06948F2E801484340F6FF7129
:100EA000B0FBF1F004EB84013E4A126802EBC10191
:100EB000098CB0FBF1F004EB84013A4A126802EBB2
:100EC000C101898A484304EB8401364A126802EB67
:100ED000C101C98AB0FBF1F004EB8401314A126808
:100EE00002EBC101486204EB84012E4A126802EB56
:100EF000C10101F1220001F016FE002004EB840183
:100F0000284A126802EBC101088404EB8401254AD7
:100F1000126802EBC10100E021E0C861601CC4B2AC
:100F20001F4800788442FFF67AAF00201F490880EE
:100F300001211D4802F025FC1C48008800EB8000C0
:100F4000184A126802EBC000017C052301221648F2
:100F500002F043FC02F08CF8154908602EE0C8212D
:100F60001348006802F0A0F8A8B100200F490880DB
:100F700001210D4802F005FC0C48008800EB8000C0
:100F8000084A126802EBC000017C052301220648D2
:100F900002F023FC0EE011E02400002020000020DD
:100FA000280000202C0000200024014030000020F8
:100FB0003400002002F05CF8F949086010BD70B5FB
:100FC00004460025F748008800EB8000F6490968D0
:100FD00001EBC0008068A0425AD14FF4087120464E
:100FE00002F04CFD012853D14FF40871204602F065
:100FF00057FD204602F058FC0546EC48006868B1F1
:10100000E848008800EB8000E749096801EBC0026E
:101010002946E448E54B1B6898470DE0E148008805
:1010200000EB8000E049096801EBC0000583DD4862
:101030000088401CDB490880DA480088DC490978D0
:10104000884225DAD74A128802EB8202D64B1B6807
:1010500003EBC202117CD34A128802EB8202D24B0C
:101060001B6803EBC20205239068012202F0B5FB66
:10107000CC49098801EB8101CB4A126802EBC1011E
:101080008868012102F07DFB01F0F2FFC44908608D
:1010900070BD70477047014600207047C349086023
:1010A00070470022C34B1970C34B186000BF01E0AA
:1010B000531CDAB2BF4B1B789A42F9DB704710B56C
:1010C0008B8800EB400202EBC002BB4C246804EBAF
:1010D0008202938400EB400303EBC003B64C0A6822
:1010E000246804EB83031A6200EB400202EBC002A7
:1010F000B14B1B6803EB8202126AB04B03EB520246
:1011000000EB400303EBC003AB4C246804EB830308
:101110001B6AB2FBF3F2521E00EB400303EBC00369
:10112000A54C246804EB83031A8500EB400202EB14
:10113000C002A14B1B6803EB8202928C00EB4003C0
:1011400003EBC0039C4C246804EB83031B8D5A43C0
:10115000002A19DB00EB400202EBC002964B1B6831
:1011600003EB8202928C00EB400303EBC003924C32
:10117000246804EB83031B8D5A4302F5FA724FF483
:101180007A7392FBF3F218E000EB400202EBC0022C
:10119000894B1B6803EB8202928C00EB400303EB4C
:1011A000C003854C246804EB83031B8D5A43A2F5CE
:1011B000FA724FF47A7392FBF3F2521C00EB400385
:1011C00003EBC0037C4C246804EB83035A8510BDF9
:1011D00010B500EB400202EBC002774B1B6803EB3B
:1011E0008202116200EB400202EBC002724B1B68EC
:1011F00003EB8202126A714B03EB520300EB4002D5
:1012000002EBC0026C4C246804EB8202126AB3FB4E
:10121000F2F2521E00EB400303EBC003664C24685D
:1012200004EB83031A8500EB400202EBC002624B21
:101230001B6803EB8202928C00EB400303EBC003BC
:101240005D4C246804EB83031B8D5A43002A19DB91
:1012500000EB400202EBC002574B1B6803EB82021B
:10126000928C00EB400303EBC003534C246804EB67
:1012700083031B8D5A4302F5FA724FF47A7392FB83
:10128000F3F218E000EB400202EBC0024A4B1B688D
:1012900003EB8202928C00EB400303EBC003464C4D
:1012A000246804EB83031B8D5A43A2F5FA724FF4B2
:1012B0007A7392FBF3F2521C00EB400303EBC00382
:1012C0003D4C246804EB83035A8510BD10B500EB38
:1012D000400202EBC002384B1B6803EB8202918490
:1012E00000EB400202EBC002334B1B6803EB8202AF
:1012F000928C00EB400303EBC0032F4C246804EBFB
:1013000083031B8D5A43002A19DB00EB400202EBDA
:10131000C002294B1B6803EB8202928C00EB400356
:1013200003EBC003244C246804EB83031B8D5A4356
:1013300002F5FA724FF47A7392FBF3F218E000EBC5
:10134000400202EBC0021C4B1B6803EB8202928C32
:1013500000EB400303EBC003174C246804EB83034A
:101360001B8D5A43A2F5FA724FF47A7392FBF3F293
:10137000521C00EB400303EBC0030F4C246804EB4A
:1013800083035A8510BD00EB400202EBC0020A4BFA
:101390001B6803EB8202536A126AC1E9002370479B
:1013A00034000020300000202C00002038000020F5
:1013B000280000203C00002040000020809698007B
:1013C000014601EB410000EBC100FE4A126802EB4E
:1013D0008000203070470022FB4B1970FB4B1860D7
:1013E00000BF01E0531CDAB2F74B1B789A42F9DBDD
:1013F0007047014601EB410000EB0110F34A12680F
:1014000002EB8000808D7047002100EB400202EB70
:101410000012EE4B1B6803EB82029185704700EBD4
:10142000400202EB0012E94B1B6803EB8202936A55
:10143000526AC1E900237047014601EB410000EB0D
:101440000110E24A126802EB8000243070477CB53C
:1014500000240025002600BFD9E104EB440000EB86
:101460000410DA49096801EB800090F83C0000287C
:1014700078D0002004EB440101EB0411D34A126838
:1014800002EB8101A1F8400000BF04EB440000EB37
:101490000410CE49096801EB8000056B04EB4400A1
:1014A00000EB0410C949096801EB8000466B04EBAE
:1014B000440000EB0410C549096801EB8000006B93
:1014C000A842E2D104EB440000EB0410BF490968D4
:1014D00001EB8000406BB042D7D1002104EB440007
:1014E00000EB0410B94A126802EB800080F83C104F
:1014F000AE4200D92E4604EB440000EB0410B34981
:10150000096801EB8000807E30B1BDF80400C0F5B1
:101510007A7080B2ADF8040004EB440000EB0410D4
:10152000AA49096801EB800090F91B0000281ADD28
:10153000BDF8040004EB440101EB0411A34A126856
:1015400002EB810191F91B10084480B2ADF8040050
:10155000BDF80400B0F57A7F34DD4FF47A70ADF851
:1015600004002FE0F3E004EB440000EB0410974983
:10157000096801EB800090F91B00002822DABDF811
:10158000041004EB440000EB0410904A126802EBD4
:10159000800090F91B004042814210DBBDF804003E
:1015A00004EB440101EB0411884A126802EB81014B
:1015B00091F91B10084480B2ADF8040002E000204D
:1015C000ADF8040004EB440000EB04107F49096807
:1015D00001EB8000B0F84800BDF8041088420DDD32
:1015E00004EB440000EB04107849096801EB80002B
:1015F000B0F84800BDF80410401A0CE0BDF8041023
:1016000004EB440000EB0410704A126802EB800007
:10161000B0F84800081A04EB440101EB04116B4ACE
:10162000126802EB810191F82010884278DC04EB0B
:10163000440000EB04106549096801EB8000406C30
:10164000009988420BD904EB440000EB04105F4979
:10165000096801EB8000406C0099401A0AE004EB35
:10166000440101EB0411594A0098126802EB810110
:10167000496C401A04EB440101EB0411534A12680F
:1016800002EB8101498C88424AD804EB440000EB0C
:1016900004104E49096801EB8000C08F401C80B2E5
:1016A00004EB440101EB0411484A126802EB81018A
:1016B000C88704EB440101EB0411444A126802EBB1
:1016C0008101898B884235DB04EB440000EB041078
:1016D0003E49096801EB8000818B04EB440000EB7C
:1016E00004103A4A126802EB8000C18704EB440000
:1016F00000EB04103549096801EB8000DDE90012B8
:10170000C0E9091204EB440101EB04112F4A1268ED
:1017100002EB810101F12C0001F005FA0AE0FFE77C
:10172000002004EB440101EB0411284A126802EB8B
:101730008101C88704EB440000EB041023490968C9
:1017400001EB8000DDE90012C0E911125DE004EB5D
:10175000440000EB04101D49096801EB8000B0F85B
:101760004000401C80B204EB440101EB0411174A15
:10177000126802EB8101A1F8400004EB440101EB87
:101780000411124A126802EB8101C98B88423CDBCA
:10179000002004EB440101EB04110C4A126802EB37
:1017A0008101A1F8400004EB440101EB0411074A58
:1017B000126802EB810148624FF47A7104EB440035
:1017C00006E0000040000020440000204800002007
:1017D00000EB0410FE4A126802EB8000018504EB66
:1017E000440101EB0411FA4A126802EB810101F194
:1017F0002C0001F098F9002004EB440101EB0411E6
:10180000F34A126802EB8101C887601CC4B2F14838
:1018100000788442FFF621AE7CBD70470020EE497F
:101820000860704770B504460D461646324621469C
:10183000284604F052F9002070BD2DE9F04105461C
:10184000884617460024464602F047FE07F001008E
:10185000F8B100BF0CE02888315B884206D000BF99
:10186000315B284602F081FF0428F9D1AD1CA41C8D
:10187000781EA042EFD82888315B88421AD000BF7A
:10188000305D40F47F41284602F06FFF0428F7D115
:1018900010E000240CE02888315B884206D000BFAD
:1018A000315B284602F061FF0428F9D1AD1CA41C6D
:1018B000BC42F0D302F01DFE0020BDE8F08110B55F
:1018C000044602F00AFE05E0C348006810B1C248B1
:1018D00000688047204602F045FE0428F4D102F05B
:1018E00008FE002010BDBC49086070477CB5054665
:1018F0000E460024B9480670B948056000BF97E05D
:1019000004EBC401B64A126802EBC101C86A0121A6
:1019100003F0C2FB04EBC401B14A126802EBC1013F
:10192000886B012103F0B8FB18208DF80300032019
:101930008DF8020004EBC400A949096801EBC0005E
:10194000808EADF8000004EBC401A54A126802EBDA
:10195000C101086B694603F0DFF804208DF803002D
:1019600004EBC4009E49096801EBC000B0F84000D8
:10197000ADF8000004EBC401994A126802EBC10102
:10198000C86B694603F0C8F804EBC401944A1268B6
:1019900052F8310002F08AF804EBC401904A126850
:1019A00002EBC1018868012103F083FB02208DF85E
:1019B000050000208DF8060001208DF8070004EBDB
:1019C000C4008749096801EBC00000798DF8040064
:1019D00001A801F0DAFD16208DF8040001A801F03D
:1019E000D4FD04EBC4027E4B1B6803EBC20202F180
:1019F000100104EBC4027A4B1B6853F8320002F06A
:101A00006EF804EBC401764A126802EBC10101F1E1
:101A10001C0002F0EEF804EBC401714A126852F89F
:101A20003100012248F2124102F0E2FB601CC4B214
:101A30006A4800788442FFF663AF7CBD1CB504465B
:101A400004EBC401664A126802EBC101C86A0121B5
:101A500003F022FB04EBC401614A126802EBC101EE
:101A6000886B012103F018FB18208DF80300032078
:101A70008DF8020004EBC4005949096801EBC0006D
:101A8000808EADF8000004EBC401554A126802EBE9
:101A9000C101086B694603F03FF804208DF803008C
:101AA00004EBC4004E49096801EBC000B0F84000E7
:101AB000ADF8000004EBC401494A126802EBC10111
:101AC000C86B694603F028F804EBC401444A126865
:101AD00052F8310001F0EAFF04EBC401404A1268F9
:101AE00002EBC1018868012103F0E3FA02208DF8BE
:101AF000050000208DF8060001208DF8070004EB9A
:101B0000C4003749096801EBC00000798DF8040072
:101B100001A801F03AFD16208DF8040001A801F09B
:101B200034FD13208DF8040001A801F02EFD04EB14
:101B3000C4022B4B1B6803EBC20202F1100104EB41
:101B4000C402274B1B6853F8320001F0C8FF04EBB6
:101B5000C401234A126802EBC10101F11C0002F02A
:101B600048F804EBC4011E4A126852F83100012201
:101B700048F2124102F03CFB1CBD30B585B0054671
:101B80000C462079012805D104208DF80800206832
:101B9000019004E000208DF8080020680090A079F2
:101BA0008DF80A00607918B900208DF8090002E06C
:101BB00002208DF80900D4F80700CDF80B00D4F806
:101BC0000B00CDF80F0005EBC501054A126809E0CE
:101BD00048000020440000204C000020500000205D
:101BE0005400002052F83100694602F0F1F8042850
:101BF00002D1012005B030BD0020FBE770B50546DD
:101C00000C4605EBC501FE4A126852F83100FD4A48
:101C1000002102F0D2F9FB48007A042805D1012006
:101C20002071F8484068206004E000202071F548E9
:101C300000682060F348807AA071F248407A10B9B9
:101C40000020607101E001206071EE480B300168F6
:101C5000C4F807104068C4F80B0005EBC500E8495C
:101C6000096801EBC000406C40B105EBC500E44AD7
:101C7000126802EBC000416C2046884770BDF8B581
:101C800005460E460024E0480670E048056000BFA7
:101C90002AE104EB8401DD4A126802EB0111096AB2
:101CA00004EB8402D94B1B6803EB0212D26A114386
:101CB00004EB8402D54B1B6803EB0212526C1143F8
:101CC00004EB8402D14B1B6803EB0212926B41EAD6
:101CD0000200012103F0E0F904EB8400CB4909681C
:101CE00001EB0010806868B10121084603F0D4F9C7
:101CF00004EB8401C54A126802EB011188680121D6
:101D000002F0DFFF04EB8400C049096801EB00101A
:101D10000068BF4988420AD104EB8401BB4A1268BB
:101D200002EB01114868012103F0B6F909E004EB68
:101D30008401B64A126802EB01114868012103F0E0
:101D4000B8F904EB8401B14A126802EB011108688A
:101D500003F006FA04EB8400AC49096801EB0010BB
:101D6000008DADF8000003208DF8020004EB840024
:101D7000A649096801EB0010008BB0B310208DF864
:101D8000030004EB8401A14A126802EB0111486AC6
:101D9000694602F0C1FE04EB84009C49096801EB2E
:101DA0000010007B80B104EB8402984B1B6803EBAE
:101DB0000212118D04EB8402944B1B6803EB021298
:101DC000506A02F056FF1EE004EB84028F4B1B6842
:101DD00003EB0212118D04EB84028C4B1B6803EBA6
:101DE0000212506A02F047FF0DE0FFE718208DF85D
:101DF000030004EB8401854A126802EB0111486A72
:101E0000694602F089FE04EB84008049096801EB11
:101E10000010808EADF8000018208DF8030004EB50
:101E200084017A4A126802EB0111086B694602F0DC
:101E300073FE04EB84007549096801EB0010806CA7
:101E4000B0B104EB84007149096801EB0010B0F8EF
:101E50004C00ADF8000018208DF8030004EB84015D
:101E60006A4A126802EB0111886C694602F054FE5E
:101E700004EB84006549096801EB0010C06BB0B148
:101E800004EB84006149096801EB0010B0F84000E0
:101E9000ADF8000004208DF8030004EB84015B4AD8
:101EA000126802EB0111C86B694602F035FE04EBC3
:101EB0008402564B1B6803EB021202F10E0104EB85
:101EC0008402524B1B6803EB0212106803F06EF998
:101ED00004EB84014D4A126802EB011108680121EC
:101EE00003F009FA601CC4B2474800788442FFF648
:101EF000D0AEF8BD70B504460D4600BF04EB8401BA
:101F0000424A126802EB01110868022103F077FAD5
:101F10000028F3D004EB84013C4A126802EB011163
:101F20000868294603F018FA00BF04EB8401374A19
:101F3000126802EB01110868012103F060FA002821
:101F4000F3D004EB8401314A126802EB01110868F6
:101F500003F004FAC0B270BD2DE9F04104460E460C
:101F600017469846002500BF2FE000BF04EB840110
:101F7000264A126802EB01110868022103F03FFAB9
:101F80000028F3D0715D04EB8402204B1B6803EB47
:101F90000212106803F0E0F900BF04EB84011B4A51
:101FA000126802EB01110868012103F028FA0028E9
:101FB000F3D004EB8401154A126802EB01110868A2
:101FC00003F0CCF97855681C85B24545CDDBBDE8FA
:101FD000F08138B5044604EB84000C49096801EB34
:101FE0000010008BA0B304EB84000849096801EBE2
:101FF0000010007BD8B104EB8402044B1B6809E09D
:102000005400002068030020580000205C000020DD
:102010000030014003EB0212118D04EB8402FE4BF1
:102020001B6803EB0212506A02F025FE53E004EB3A
:102030008402F94B1B6803EB0212118D04EB84023E
:10204000F54B1B6803EB0212506A02F012FE42E0ED
:10205000FFE704EB8400F049096801EB0010007B06
:1020600080B104EB8402EC4B1B6803EB0212118D70
:1020700004EB8402E84B1B6803EB0212506A02F087
:10208000FAFD0FE004EB8402E34B1B6803EB021242
:10209000118D04EB8402E04B1B6803EB0212506AC3
:1020A00002F0E7FD04EB8400DB49096801EB001056
:1020B000008DADF8000003208DF8020010208DF88F
:1020C000030004EB8401D44A126802EB0111486A50
:1020D000694602F021FD38BD38B5044604EB8400A2
:1020E000CD49096801EB0010008B48B304EB840074
:1020F000C949096801EB0010007B80B104EB840240
:10210000C54B1B6803EB0212118D04EB8402C24B1A
:102110001B6803EB0212506A02F0ABFD29E004EBEE
:102120008402BD4B1B6803EB0212118D04EB840289
:10213000B94B1B6803EB0212506A02F09CFD18E0D9
:1021400004EB8400B449096801EB0010008DADF880
:10215000000003208DF8020018208DF8030004EB26
:102160008401AD4A126802EB0111486A694602F027
:10217000D3FC38BD0022A94B1970A94B186000BFD1
:1021800001E0531CDAB2A54B1B789A42F9DB704789
:102190007047014601EB4100A14A126802EB401072
:1021A000B0F85E00704770B504460D46164604EB65
:1021B00044009B49096801EB4010B0F85E00B04252
:1021C00012DA04EB4400964B1B6803EB4010B0F8A6
:1021D0005E2004EB4400924B1B6803EB4010016D42
:1021E000284603F07AFC0AE004EB44008C4A1268AB
:1021F00002EB40103246016D284603F06EFC70BDC4
:102200007047704770477CB505460E4600248548E8
:1022100006708548056000BFC2E0C4EB0411824A25
:10222000126802EB8101086A012102F035FFC4EB5C
:1022300004117D4A126802EB8101C86A012102F093
:102240002BFFC4EB04107849096801EB8000C068DB
:1022500068B10121084602F01FFFC4EB0411724A65
:10226000126802EB8101C868012102F02AFD0420F6
:102270008DF80300C4EB04106B49096801EB800082
:10228000808EADF80000C4EB0411674A126802EBBF
:102290008101086B694602F03FFC18208DF80300AD
:1022A000C4EB04106049096801EB8000008DADF8B3
:1022B000000003208DF80200C4EB04115A4A126892
:1022C00002EB8101486A694602F026FCC4EB041166
:1022D000554A126852F8210003F0C8F8C4EB041004
:1022E0005149096851F82000504988420AD1C4EB8D
:1022F00004114D4A126802EB81018868012102F045
:10230000CBFE09E0C4EB0411474A126802EB8101DD
:102310008868012102F0CDFEC4EB0410424909682F
:1023200001EB800000798DF8040001208DF8050094
:1023300000208DF8060001208DF8070001A801F0AB
:1023400024F9C4EB0412384B1B6803EB820202F140
:102350001001C4EB0412344B1B6853F8220003F045
:10236000C8F8C4EB0411304A126852F82100012267
:1023700040F2255103F055F9C4EB04112A4A1268C2
:1023800052F82100202103F028FAC4EB0411264A58
:10239000126852F82100012103F037F9601CC4B221
:1023A000204800788442FFF638AF7CBD2DE9F0412B
:1023B00004460E461746002500BF16E0715DC4EBCB
:1023C0000412194B1B6853F8220003F08BF900BF6D
:1023D000C4EB0411144A126852F82100802103F062
:1023E000EFF90028F4D0681C85B2BD42E6DB00207E
:1023F000BDE8F08170B504460D460026C4EB04111B
:10240000094A126852F8210040F2255103F0EEF912
:1024100040B3C4EB04110BE05C000020600000201E
:1024200064000020680000206C000020003801409B
:102430000D4A126852F8210003F058F9C6B205B1EE
:102440002E70C4EB04100849096801EB8000806B12
:1024500040B1C4EB0410044A126802EB8000816BA7
:102460003046884770BD00006C00002010B5032185
:102470002348FEF701F810BD10B502212148FEF7F0
:1024800005F910BD10B503211F48FEF704FB10BD70
:1024900010B503211D48FEF719FC10BD10B5012130
:1024A0001B48FFF723FA10BD10B502211948FFF7AA
:1024B000E6FB10BD38B504460D46E0B2009001229F
:1024C00069461046FFF772FF204638BD10B502215D
:1024D0001148FFF798FE10BD10B5FFF7C7FFFFF7D3
:1024E000CBFFFFF7CFFFFFF7D3FFFFF7DDFF10BDF7
:1024F00010B5FEF746F8FEF77DFAFEF786FC10BD34
:1025000070000020AC000020D40000200401002056
:102510007C010020C40100206402002000B589B0C5
:102520000120ADF804000B48CDF806000A48CDF8AC
:102530000A000020CDF80E00CDF81200CDF81600EC
:10254000CDF81A00CDF81E0001A800F03DFD09B03D
:1025500000BD0000950300080304000800B585B025
:102560000C4800901E20ADF8040003208DF80600F2
:102570000948CDF807000948CDF80B000848CDF808
:102580000F0001208DF81300684600F087FE05B0AB
:1025900000BD000095030020CD240008AD230008F5
:1025A000DC02002030B503460C4600211D4600BF6A
:1025B00006E0685C904201D0002030BD481C81B22A
:1025C000A142F6DB0120F8E70146302905DB392975
:1025D00003DCA1F13000C0B27047412905DB462978
:1025E00003DCA1F13700C0B2F6E7612905DB6629FB
:1025F00003DCA1F15700C0B2EEE70020ECE70922AE
:10260000B2EB101F04DA0A22C2EB1012413201E0D1
:10261000020930320A7000F00F02092A03DD00F0CF
:102620000F02373202E000F00F0230324A7070477A
:10263000F0B504460D4616460023002700BF00BF34
:1026400007E0F119E05CFFF7DAFF581C83B2B81C11
:1026500087B2AB42F5DBF0BD00B50246002310782F
:10266000FFF7B2FF03461807030E5078FFF7ACFFE1
:102670000343184600BDF0B504460E46002500276A
:1026800000BF00BF07E0E019FFF7E6FF6055681CD8
:1026900085B2B81C87B2B542F5DBF0BD70B5044613
:1026A0000E46002505E02046FFF7D6FF2844C5B2B8
:1026B000A41C301EA6F101018EB2F4D1284670BDD3
:1026C00010B50246002003E012F8014B2318D8B2DF
:1026D0000B1EA1F10104A1B2F6D110BDF0B5044664
:1026E0000A46002300260025104602EBD07149104F
:1026F000A2EB410109B10120F0BD00230EE0591CFD
:10270000605CFFF761FF0746E05CFFF75DFF47EAAB
:102710000010C6B2A819C5B2981C83B29342EEDB72
:102720000DB10120E8E70020E6E7F0B504460A46CF
:10273000002300260025104602EBD0714910A2EBC1
:10274000410109B10120F0BD00230EE0591C605C7D
:10275000FFF73AFF0746E05CFFF736FF47EA001055
:10276000C6B2A819C5B2981C83B29342EEDBFF2D06
:1027700001D00120E7E70020E5E710B502460B464F
:102780000021002000BF03E0545C60404C1CA1B25B
:102790009942F9DB10BD01460A46002050784FF6F9
:1027A000FF7303EA00201378184370470A4611B1FB
:1027B000107000125070704701460A4600201078D1
:1027C0004FF6FF7303EA00205378184370470A4618
:1027D00011B1507000121070704701460A46002077
:1027E000D07800029378184300025378184300020F
:1027F0001378184370470A46114632B10870000A30
:102800004870000A8870000AC870704701460A467E
:102810000020107800025378184300029378184380
:102820000002D378184370470A46114632B1C87087
:10283000000A8870000A4870000A0870704708B5DE
:1028400001460A460020009010788DF8000050786C
:102850008DF8010090788DF80200D0788DF8030093
:10286000009808BD03B508469DF8002002709DF849
:10287000012042709DF8022082709DF80320C270F2
:102880000CBD08B501460A4600200090D0788DF8AE
:10289000000090788DF8010050788DF802001078D3
:1028A0008DF80300009808BD03B508469DF8032085
:1028B00002709DF8022042709DF8012082709DF800
:1028C0000020C2700CBD1CB50246134600210091C9
:1028D000019118788DF8000058788DF801009878EB
:1028E0008DF80200D8788DF8030018798DF804006F
:1028F00058798DF8050098798DF80600D8798DF80B
:102900000700DDE900011CBD07B510469DF8001069
:1029100001709DF8011041709DF8021081709DF8C2
:102920000310C1709DF8041001719DF805104171EC
:102930009DF8061081719DF80710C1710EBD1CB580
:1029400002461346002100910191D8798DF80000CC
:1029500098798DF8010058798DF8020018798DF872
:102960000300D8788DF8040098788DF80500587821
:102970008DF8060018788DF80700DDE900011CBD10
:1029800007B510469DF8071001709DF806104170BC
:102990009DF8051081709DF80410C1709DF803101A
:1029A00001719DF8021041719DF8011081719DF82F
:1029B0000010C1710EBD4FF0FF30FE490860704736
:1029C00070B5024600200024002300BF1BE0155C08
:1029D000F84E36687540F74E3560002310E0F54D2F
:1029E0002D682D0EF44E56F82540F24D2D682D021F
:1029F000F04E356035462D68654035605D1CEBB2A4
:102A0000042BECDB401C8842E1D370BDE948006830
:102A10007047F0B502460B4600210025481E0024F1
:102A200000BF0EE0565C7040002407E0060EE24F47
:102A300057F8265000026840661CF4B2042CF5DBFF
:102A4000491C9942EED3F0BD70B502460C46FF25F5
:102A5000FF2309E012F8010B80EA0301D748405C2C
:102A600080EA0503D648455C201EA4F10106B4B2F5
:102A7000F0D143EA052070BD0020D249088070479C
:102A80000EE010F8013BCF4A128883EA2222CE4B97
:102A900033F81220CB4B1B7882EA0322C94B1A80F1
:102AA0000A1EA1F10101ECD17047C64800887047A9
:102AB00010B5024600200AE012F8014B84EA2023F8
:102AC000DBB2C14C34F8133083EA002398B20B1EFA
:102AD000A1F10101F0D110BD0346981806D2981853
:102AE000884201D9994208D201207047994204D204
:102AF0009818884201D80120F7E70020F5E7024640
:102B0000914201D3881A7047C2F1FF300844401C3B
:102B1000F9E70178FF2902D10121017002E0017873
:102B2000491C0170704701884FF6FF72914202D133
:102B30000121018002E00188491C01807047016881
:102B4000B1F1FF3F02D10121016002E00168491C9F
:102B50000160704701460A2091FBF0F200FB121061
:102B60000A2291FBF2F240EA0210C0B2704701461D
:102B7000002000BF06E0012282408A4200D103E02B
:102B8000421CD0B22028F6DB00BF7047F0B50446E7
:102B90008C4615461E46059F24B1BCF1000F01D09E
:102BA00006B10FB90020F0BD0021ACF1010082B2E6
:102BB00054F82100A84203D854F82200A84201D2B8
:102BC0000020F0E754F82100A84202D1318039807A
:102BD0001FE054F82200A84202D132803A8018E067
:102BE00012E08818C0F34F0354F82300A84201D222
:102BF000194609E054F82300A84201D91A4603E017
:102C000033803B800120CEE7501A0128E9DC318077
:102C10003A800120C7E730B504460D469A4200DAF3
:102C20000AB9002030BD981A00FB05F1B1FBF2F1A2
:102C3000A14201D9091B00E000210846F2E7F0B5E6
:102C400005469A4201DB5F1EBAB205FB02F69C1AEA
:102C500006EB5407B7FBF4F0884201D3401A00E0BA
:102C60000020F0BD2DE9F04706468946B14503D85E
:102C70004FF0FF30BDE8F087A9EB060CA6FB093A40
:102C8000A9EB060149085F184AF1000162460023DA
:102C9000384602F0F1FE04460D46601C75F1000155
:102CA00002D34FF0FF30E5E72046E3E7014601F0AD
:102CB0000F000A1102EB820200EB4200C0B2704723
:102CC00001460A2091FBF0F200FB12100A2291FB50
:102CD000F2F240EA0210C0B27047F0B504460A466C
:102CE000002100200023394DB4FBF5F605FB164109
:102CF0004FF46165B1FBF5F595704FF46165B1FB7B
:102D0000F5F605FB16153C26B5FBF6F555703C258A
:102D1000B1FBF5F605FB161515702C4DB4FBF5F15E
:102D20000D1D0726B5FBF6F706FB1755157140F28A
:102D3000B27030E0C61700EB9676B610A0EB8606B0
:102D40002EB9642690FBF6F706FB17069EB94FF4E2
:102D5000C87690FBF6F706FB170636B94FF44866BF
:102D600090FBF6F706FB17062EB9194E90FBF6F707
:102D700006FB170636B9B1F5B77F02D3A1F5B771D7
:102D800007E00AE0B1F5B67F02D9A1F26D1100E0CB
:102D900003E0451CA8B20029CCD100BFD08000239D
:102DA000C61700EB9676B610A0EB8606BEB9642671
:102DB00010E00000F4020020785D0008786100084F
:102DC00078620008F8020020786300088051010052
:102DD00000A3020090FBF6F706FB17069EB94FF41E
:102DE000C87690FBF6F706FB170636B94FF448662F
:102DF00090FBF6F706FB17062EB9704E90FBF6F720
:102E000006FB17065EB905E01D465E1CF3B26C4E6C
:102E1000755D491B6A4DED5C8D42F5D90AE005E010
:102E20001D465E1CF3B2674E755D491B654DED5C3A
:102E30008D42F5D953714D1CD570F0BDF0B50C46DF
:102E4000002100220023C58840F2B276B54202DAA2
:102E500000252560F0BD002140F2B27227E0D617B0
:102E600002EB9676B610A2EB86062EB9642692FB8C
:102E7000F6F706FB17269EB94FF4C87692FBF6F7D5
:102E800006FB172636B94FF4486692FBF6F706FBA9
:102E900017262EB9494E92FBF6F706FB172616B9F0
:102EA00001F5B77101E001F26D11551CAAB2C58898
:102EB0009542D4DCC588EE1705EB9676B610A5EBE7
:102EC000860636B9C688642796FBF7FC07FB1C66A6
:102ED000AEB9C6884FF4C87796FBF7FC07FB1C66B3
:102EE00036B9C688FF0096FBF7FC07FB1C6636B9AF
:102EF000C688324F96FBF7FC07FB1C6656B90023C9
:102F000004E02F4DED5C29445D1CEBB245799D42F8
:102F1000F7DC09E0002304E02A4DED5C29445D1C48
:102F2000EBB245799D42F7DCC5786D1E294401EB73
:102F30004105ED00C5EB0515AD00C5EB0515A90074
:102F40008578C5EB0515AD00C5EB051501EB8501D1
:102F50004578C5EB051501EB85010578294421600D
:102F600000BF77E7F0B502460023002000244F1E83
:102F7000BDB2002600BF1CE0002013E052F820C0C4
:102F8000471C52F82770BC450AD952F82060471CEC
:102F900052F8277042F82070471C42F82760044618
:102FA000471CB8B2A842E9DB254605B904E05F1C1E
:102FB000BBB24F1E9F42DFDC00BFF0BD00A302008A
:102FC000846500087865000810B504468148002132
:102FD00001604160018181721E2221467E4802F01B
:102FE0007CFD7D4800887B4908807B48D0F8120032
:102FF00060B17948D0F812100E30884718B102201D
:103000007449887202E00120724988727248D0F8CF
:103010000E007049C1F806006F48D0F8020020B1D8
:103020006D4A1088D2F80210884710BD6948D0F860
:1030300002006849098808446649C1F80200084648
:1030400000886649096808446449086008460068C1
:10305000B0F57A7F0BD308460068A0F57A70086057
:103060005C48D0F80600401C5A49C1F80600704779
:1030700000BF5849D1F80200D1F802108142F8D1BE
:1030800070470346981806D29818884201D9994289
:1030900008D201207047994204D29818884201D87A
:1030A0000120F7E70020F5E710B502460B46FFF7D1
:1030B000DFFF0446D01806D2D018A04201D99442AE
:1030C00008D2012010BD944204D2D018A04201D8E9
:1030D0000120F7E70020F5E710B504463E48D0F898
:1030E000060020B13C48D0F806102046884710BDA5
:1030F00070B50446FFF7BCFF054607E03648D0F838
:103100000A0018B13449D1F80A008047FFF7B0FF30
:103110000646224631462846FFF7B3FF0028EDD089
:1031200070BD0246914201D3881A7047C2F1FF3048
:103130000844401CF9E708B50020009000BF25486E
:10314000D0F8060000902348D0F806000099884285
:10315000F5D12148D0F81A00D0B12148006800F517
:1031600096600099884213D21D49009808601A4859
:10317000D0F81A106846884750B900BF1549009822
:10318000C1F806000846D0F8060000998842F5D13B
:10319000009808BD70B50446002500BF0D48C0F872
:1031A0000640D0F80600A042F8D10B48D0F816002F
:1031B00070B10948D0F816102046884720B1022087
:1031C00004498872012503E0012002498872002524
:1031D000284670BDB3030020BE030020FC0200207F
:1031E00000030020F0B50346002000BFE34DD5F8F2
:1031F0000F50C3EBC30606EB03163544B5F80F407A
:103200003DE0DE4DD5F80F50C3EBC30606EB0316C9
:103210003544D5F80150D94ED6F80F60C3EBC3073B
:1032200007EB03173E44B6F81160AD5D0D54D34D66
:10323000D5F80F50C3EBC30606EB03163544B5F8BB
:1032400011506D1CCD4ED6F80F60C3EBC30707EBD2
:1032500003173E44B6F8056095FBF6F706FB1755D5
:10326000AEB2C64DD5F80F50C3EBC30707EB03173B
:103270003D44A5F81160451CA8B2551EAAB2BF4D29
:10328000D5F80F50C3EBC30606EB03163544B5F86B
:103290001150A54201D0002AB3DCF0BD70B505463F
:1032A000002414222946B54802F017FC00BF24E090
:1032B000B248D0F80F00F0B10020B049D1F80F109B
:1032C000C4EBC40202EB04121144A1F80F00AB4995
:1032D000D1F80F10C4EBC40202EB04121144A1F8A0
:1032E0001100A649D1F80F10C4EBC40202EB04127E
:1032F0001144C1F81300601CC4B2A048C07CA042B5
:10330000D6DC9E48D0F8070018B19C49D1F80700D8
:10331000804770BD2DE9F04100250026002400BF44
:1033200055E0964AD2F80F20C4EBC40303EB041314
:103330001A44D2F80B00914A9179FFF7B5FE0028A4
:1033400043D08E48828801682046FFF74BFF054630
:10335000022D2EDD89480168681E0E5C4FF6FF7055
:1033600000EA062685480168A81E085C0643AA1ED6
:1033700091B2824A1068FFF767FBB04219D17F48CB
:10338000D0F80F00C4EBC40101EB04110844D0F8DD
:10339000070070B1794BD3F80F30C4EBC40707EBCB
:1033A00004173B44D3F80720AB1E99B2734B18683F
:1033B0009047FFF75DFE7149D1F80F10C4EBC402CE
:1033C00002EB04121144C1F80B00601CC4B26B483C
:1033D000C07CA042A5DCBDE8F08170B504460D4676
:1033E0006648C07CA04201DC012070BD6348D0F873
:1033F0000F00C4EBC40101EB04110844B0F80F0046
:10340000401C5E49D1F80F10C4EBC40202EB041259
:103410001144B1F8051090FBF1F201FB120157487D
:10342000D0F80F00C4EBC40202EB04121044B0F851
:103430001100814217D15148D0F80F00C4EBC401EC
:1034400001EB04110844D0F8130040F001004B498F
:10345000D1F80F10C4EBC40202EB04121144C1F8FE
:1034600013000120C1E74548D0F80F00C4EBC401A8
:1034700001EB04110844D0F801004049D1F80F10C5
:10348000C4EBC40202EB04121144B1F80F1045540E
:103490003A48D0F80F00C4EBC40101EB0411084412
:1034A000B0F80F00401C3549D1F80F10C4EBC4022E
:1034B00002EB04121144B1F8051090FBF1F201FB8C
:1034C00012002E49D1F80F10C4EBC40202EB041213
:1034D0001144A1F80F00FFF7CBFD2849D1F80F10D8
:1034E000C4EBC40202EB04121144C1F80B0000202B
:1034F0007BE72DE9F04105460E46144600271F489C
:10350000C07CA84206DD2EB124B11C488188A01CD5
:10351000814202DA0120BDE8F0811849086822469C
:10352000314602F0DAFA154908682146FFF78CFAAD
:103530000746124909680F55391210480268601C85
:1035400011540E48D0F80B00A8B1DFF830C0DCF8F9
:103550000FC0C5EBC50808EB05181CF8080004F1FE
:10356000020C1FFA8CF2DFF814C0DCF80010DCF853
:103570000B309847CFE70120CDE70000DC030020A7
:1035800031490143314A1160704770B50021002371
:103590000F22C47804B32D4C246804F4E064C4F50D
:1035A000E064210AC1F10403CA40447804FA03F13B
:1035B0008478144021430901254C0678A1550478EC
:1035C00004F01F050124AC4005786D11AD0005F134
:1035D000E025C5F8004109E0047804F01F05012446
:1035E000AC401C4D0678761145F8264070BD1A4A4D
:1035F0000A400243154B1B1F1A60704739B1134A2A
:10360000121D12680243114B1B1D1A6006E00F4A7F
:10361000121D126882430D4B1B1D1A60704704284F
:1036200008D14FF0E021096941F004014FF0E02298
:10363000116107E04FF0E021096921F004014FF02A
:10364000E0221161704700000000FA050CED00E077
:1036500000E400E080E100E080FFFF1F10B50446B9
:10366000FA48844208D10121401501F02FFD0021C4
:10367000601501F02BFD17E0F548844208D10121C7
:10368000001501F023FD0021201501F01FFD0BE0C6
:10369000F048844208D10121C80301F017FD002140
:1036A0004FF4004001F012FD10BD30B5024600207D
:1036B00000235068E84C20400D790C6844EA05244A
:1036C000204350609068E54C2040D1E902542C43DF
:1036D0004D7944EA450420439060D06A20F470009C
:1036E0000C7C641EE4B2234340EA0350D06230BD38
:1036F00000210160017141718160C160012101748B
:10370000704721B1826842F00102826003E0826862
:1037100022F001028260704721B1826842F4807217
:10372000826003E0826822F480728260704710B584
:103730000023CBB21AB144681C43446002E04468E1
:103740009C43446010BD816841F00801816070476E
:10375000014600208A6802F008020AB1012000E058
:1037600000207047816841F0040181607047014684
:1037700000208A6802F004020AB1012000E0002063
:10378000704721B1826842F4A002826003E082683F
:1037900022F4A00282607047014600208A6802F489
:1037A00080020AB1012000E00020704710B50A46EF
:1037B00000210023416821F46041531E41EA433156
:1037C000416010BD21B1426842F40062426003E0F2
:1037D000426822F4006242607047F0B504460D462C
:1037E00000200021092D11DDE068A5F10A0606EB95
:1037F0004607072606FA07F18843A5F10A0606EBF5
:10380000460603FA06F10843E0600CE0206905EB88
:103810004507072606FA07F1884305EB450603FA34
:1038200006F108432061072A0FDA606B561E06EB8B
:1038300086071F2606FA07F18843561E06EB860602
:1038400005FA06F10843606322E00D2A0FDA206BC7
:10385000D61F06EB86071F2606FA07F18843D61FF8
:1038600006EB860605FA06F10843206310E0E06ADD
:10387000A2F10D0606EB86071F2606FA07F188431C
:10388000A2F10D0606EB860605FA06F10843E06292
:10389000F0BD21B1826842F48012826003E0826848
:1038A00022F48012826070470146C86C80B2704773
:1038B00066484C300068704721B1426842F480622B
:1038C000426003E0426822F480624260704721B1A6
:1038D000426842F48052426003E0426822F480521F
:1038E000426070470A460021816821F4E04111439B
:1038F0008160704721B1826842F40042826003E037
:10390000826822F400428260704721B1826842F4EA
:103910000212826003E0826822F402128260704721
:10392000014600208A6802F400120AB1012000E07A
:1039300000207047F0B504461546002000220026FE
:10394000092911DDE068A1F10A0707EB470C0727F9
:1039500007FA0CF29043A1F10A0707EB470703FAB5
:1039600007F21043E0600CE0206901EB410C0727EF
:1039700007FA0CF2904301EB410703FA07F21043F8
:103980002061A06BC0F30156EF1C06F1010CA7EB00
:103990000C0707EB870C1F2707FA0CF29043EF1C6C
:1039A00006F1010CA7EB0C0707EB870701FA07F2FA
:1039B0001043A063F0BD10B50A4600210023816BBF
:1039C00021F44011531E41EA0351816310BD08B533
:1039D000002300930090009B0B440093009B1A600F
:1039E00008BD08B5024600200090009201F12800B1
:1039F000009B184400900098006880B208BD0A46F9
:103A000000214168164B19401143416070474162E3
:103A1000826270470A460021416821F01F0111436C
:103A20004160704740B109490831096841F400011B
:103A3000064A0832116007E004490831096821F498
:103A40000001024A08321160704700000024014062
:103A500000280140003C0140FFFEF0FFFDF7F1FFB0
:103A6000FFFD3FFF0246002013680B400BB1012011
:103A700000E000207047CA430260704770B50246FC
:103A80000020002300240B125568CEB205EA06047C
:103A900015681D4015B10CB1012000E0002070BD7B
:103AA00000220A12D34303607047000010B5044699
:103AB000FE48844209D10121480601F014FB00218F
:103AC0004FF0007001F00FFB08E00121880601F0C3
:103AD0000AFB00214FF0806001F005FB10BD30B5FE
:103AE000024600200023146824F0020414601468C5
:103AF00044F00104146000E05B1C546804F001040D
:103B00001CB94FF6FF74A342F6D1546804F00104C7
:103B10000CB900206CE08C79012C04D1146844F0BD
:103B20008004146003E0146824F080041460CC79ED
:103B3000012C04D1146844F04004146003E01468BC
:103B400024F0400414600C7A012C04D1146844F071
:103B50002004146003E0146824F0200414604C7AFC
:103B6000012C04D1146844F01004146003E01468BC
:103B700024F0100414608C7A012C04D1146844F0F1
:103B80000804146003E0146824F008041460CC7A7C
:103B9000012C04D1146844F00404146003E0146898
:103BA00024F0040414608C78A407CD7844EA0564FA
:103BB0000D7944EA05444D7944EA05540D886D1E9B
:103BC0002C43D461146824F001041460002300E045
:103BD0005B1C546804F001041CB14FF6FF74A3424F
:103BE000F6D1546804F001040CB1002000E001207B
:103BF00030BD10B50021837A012202FA03F1AC4AEC
:103C0000126842F00102AA4B1A60A94A1C321268DB
:103C10008A43A74B1C331A60027BCAB9A44A0C32F0
:103C200012688A43A24B0C331A604288C38842EA66
:103C300003439F4A4032847A42F8343002888388B2
:103C400042EA03439A4A4032847A02EBC402536048
:103C5000027B012A19D1964A0C3212680A43944B0E
:103C60000C331A604288038842EA0343904A403288
:103C7000847A42F83430C288838842EA03438C4A0B
:103C80004032847A02EBC4025360C27A3AB9884A5D
:103C9000121D12688A43864B1B1D1A6006E0844A77
:103CA000121D12680A43824B1B1D1A60028932B929
:103CB0007F4A143212688A437D4B14331A6002899A
:103CC000012A06D17A4A143212680A43784B143317
:103CD0001A60427B012A06D1754A1C3212680A43D7
:103CE000734B1C331A60724A126822F00102704B47
:103CF0001A6010BD00218171C1710172417281721F
:103D0000C1728170C17003210171022141710121D1
:103D1000018070476649096841F00101644A1160F9
:103D20001146096843F60E729143614A11601146CB
:103D3000096841EA002111601146096821F001017A
:103D40001160704721B1026842F48032026003E0E2
:103D5000026822F4803202607047E1B1026842F0EA
:103D6000800202604FF4C272125842F480734FF422
:103D7000C27213504FF4CA72125842F480734FF457
:103D8000CA7213504FF4D272125842F480734FF437
:103D9000D27213501BE0026822F0800202604FF4DE
:103DA000C272125822F480734FF4C27213504FF44F
:103DB000CA72125822F480734FF4CA7213504FF42F
:103DC000D272125822F480734FF4D272135070479B
:103DD00010B502460020936803F08063B3F1806F52
:103DE00000D110E0936803F00063B3F1006F01D1DC
:103DF000012008E0936803F08053B3F1805F01D1A4
:103E0000022000E00420042879D002F5C07303EBFF
:103E100000131B6803F0010402F5C07303EB0013E9
:103E20001C600B7A7BB94B7A0C8843EA445302F549
:103E3000C07404EB00142468234302F5C07404EB3F
:103E40000014236010E00B7A4C6843EAC4034C7AF8
:103E5000234302F5C07404EB00142468234302F5E5
:103E6000C07404EB001423608B7A03F00F038B7291
:103E700002F5C07303EB00135B6823F00F0402F537
:103E8000C07303EB00135C6002F5C07303EB001317
:103E90005B688C7A234302F5C07404EB0014636002
:103EA0008B7B1C064B7B44EA034403E00064004028
:103EB000006600400B7B44EA0323CC7A234302F5DF
:103EC000C07404EB0014A3608B7C1C064B7C44EA9A
:103ED00003440B7C44EA0323CC7B234302F5C074E8
:103EE00004EB0014E36002F5C07303EB00131B68DE
:103EF00043F0010402F5C07303EB00131C6010BD16
:103F000010B50246002321B1012907D002290FD1A3
:103F100009E09068F94C00EA04030BE09068F84C63
:103F200000EA040306E09068F64C00EA040301E0AE
:103F3000002300BF00BFF44C181BA34216D007DCBF
:103F400083B16FF08060184470B1022818D111E07D
:103F5000B0F5007F10D0ED4C204448B1B0F5003FE3
:103F60000ED10BE002230DE000230BE0002309E05B
:103F7000002307E0012305E0012303E0012301E022
:103F8000002300BF00BFD8B210BD21B1012907D066
:103F900002290FD109E0826842F0800282600AE0C3
:103FA000826842F40042826005E0826842F40002C6
:103FB000826000E000BF00BF704710B500F5D87305
:103FC00003EB01131B6803F004031372137A53B954
:103FD00000F5D87303EB01131B6840F2FF7404EA89
:103FE0005353136009E000F5D87303EB01131B680A
:103FF0006FF0604404EAD303536000F5D87303EB19
:1040000001131B6803F00203537200F5D87303EB2E
:1040100001135B6803F00F03937200F5D87303EB91
:1040200001135B681B0AD37400F5D87303EB01130B
:104030009B68D37200F5D87303EB01139B681C0ACD
:10404000147300F5D87303EB01139B681C0C5473B5
:1040500000F5D87303EB01139B681B0E937300F5F7
:10406000D87303EB0113DB68D37300F5D87303EB4C
:104070000113DB681C0A147400F5D87303EB0113F9
:10408000DB681C0C547400F5D87303EB0113DB6878
:104090001B0E937421B9C36843F02003C36003E08F
:1040A000036943F02003036110BD21B9C26842F0E7
:1040B0002002C26003E0026942F020020261704700
:1040C0000246002019B9D36803F0030006E0012975
:1040D00003D1136903F0030000E00020704710B51E
:1040E00002460B4600204FF6FF71BBB9146824F05E
:1040F000020444F00104146000E0491E546804F016
:104100000304012C01D00029F7D1546804F0030402
:10411000012C01D0002032E0012030E0012B13D12E
:10412000146824F00304146000E0491E546804F08D
:1041300003040CB10029F8D1546804F003040CB155
:1041400000201CE001201AE0022B17D1146824F093
:10415000010444F00204146000E0491E546804F0B5
:104160000304022C01D00029F7D1546804F00304A1
:10417000022C01D0002002E0012000E0002010BD50
:10418000014600200A6822F0010242F002020A60A1
:104190004A6802F00302022A00D10120704701465A
:1041A0004FF6FF7200200B6823F002030B6000E063
:1041B000521E4B6803F00203022B01D1002AF7D1F3
:1041C0004B6803F00203022B00D001207047014628
:1041D00000208A6902F070007047014600208A6959
:1041E000100E7047014600208A69C2F307407047ED
:1041F0001AB143690B43436102E043698B43436156
:10420000704710B50246002001F4700343B1936972
:10421000C1F3130423400BB101202DE000202BE05B
:1042200001F0807343B15368C1F3130423400BB111
:10423000012021E000201FE001F0006343B19368FA
:10424000C1F3130423400BB1012015E0002013E05B
:1042500001F0007343B1D368C1F3130423400BB1E1
:10426000012009E0002007E01369C1F31304234093
:104270000BB1012000E0002010BD0022244B994228
:1042800002D10023836111E0C1F3130201F0007336
:104290000BB1C2600AE001F080630BB1026105E07E
:1042A00001F000630BB1826000E04260704702469B
:1042B000002002EA01030BB1012000E0002070475A
:1042C00070B504460D46002660692840002872D06B
:1042D000B5F5807F69D01DDC082D42D006DC012DAC
:1042E0002DD0022D31D0042D7FD134E0102D3ED0C1
:1042F000202D42D0402D78D145E00000030000047D
:104300000003000800000310000100080001FFF78F
:104310007000F030B5F5004F61D009DCB5F5007FD5
:104320004AD0B5F5806F4DD0B5F5006F5DD150E046
:10433000B5F5803F2DD0B5F5003F56D12FE0A068F0
:104340005549FFF7B4FF064651E0E0680321FFF747
:10435000AEFF06464BE0E0680821FFF7A8FF0646DF
:1043600045E0E0681021FFF7A2FF06463FE0206924
:104370000321FFF79CFF064639E020690821FFF77B
:1043800096FF064633E020691021FFF790FF0646AE
:104390002DE060680821FFF78AFF064627E0606885
:1043A0001021FFF784FF064621E0A0690121FFF7F5
:1043B0007EFF06461BE01BE0A0690221FFF777FFA6
:1043C000064614E0A0690421FFF771FF06460EE0DF
:1043D0000BE0A0697021FFF76AFF064607E06068FE
:1043E0000421FFF764FF064601E0002600BF00E05D
:1043F0000026304670BDB1F5007F3AD00FDC202991
:1044000028D006DC01291CD004291DD0082940D160
:104410001DE0402921D0B1F5807F3AD126E0B1F5E9
:10442000004F31D006DCB1F5806F25D0B1F5006FBB
:104430002FD124E0B1F5803F12D0B1F5003F28D153
:1044400011E0154A826025E00822C26022E01022B5
:10445000C2601FE0082202611CE01022026119E024
:104460000822426016E01022426013E004224260FB
:1044700010E0042242600DE0042242600AE00022C3
:1044800082610422426005E00022826104224260CF
:1044900000E000BF00BF704701010100014600209D
:1044A000FE4A106800F03800084310607047FB496E
:1044B000096821F00801F94A1160114609680143B1
:1044C00011607047F549096821F01001F34A116045
:1044D00011460968014311607047F148EF4948608F
:1044E000F04848607047EE48EC494860ED48486045
:1044F0007047EA48006940F08000E8490861704769
:10450000E648006940F08000E449086170470420F3
:10451000E249C96801F0010109B101200EE0DF495B
:10452000C96801F0040109B1022007E0DB49C9684C
:1045300001F0100109B1032000E00420704700B52C
:1045400002460423FFF7E3FF034603E0FFF7DFFF24
:104550000346521E012B01D1002AF7D102B90523CF
:10456000184600BD30B5044604254FF43020FFF74F
:10457000E6FF0546042D17D1C848006940F0020047
:10458000C649086108464461006940F0400008617E
:104590004FF43020FFF7D3FF0546C048006941F6CD
:1045A000FD710840BD490861284630BD10B504249E
:1045B0004FF43020FFF7C3FF0446042C16D1B74850
:1045C000006940F00400B54908610846006940F000
:1045D000400008614FF43020FFF7B1FF0446AF48B8
:1045E000006941F6FB710840AC490861204610BDE6
:1045F00000B502460423FFF78AFF034603E0FFF7F6
:1046000086FF0346521E012B01D1002AF7D102B9C1
:104610000523184600BD10B504244FF43020FFF7E1
:10462000E7FF0446042C16D19C48006940F00400C2
:104630009A4908610846006940F0400008614FF45B
:104640003020FFF7D5FF04469448006941F6FB711E
:10465000084092490861204610BD00208F49C96971
:1046600001F0020109B1012000E00020704730B5DF
:10467000A5250424FFF7F1FF00B100254FF43020F9
:10468000FFF75DFF0446042C3AD1854883498860D2
:10469000844888600846006940F0200008610846A8
:1046A000006940F0400008614FF43020FFF747FFF9
:1046B0000446042C1BD17948006941F6DF7108409B
:1046C000764908610846006940F0100008617648A4
:1046D0000580E002FFF733FF0446052C10D06F4839
:1046E000006941F6EF7108406C49086108E0052C4B
:1046F00006D06A48006941F6EF71084067490861D1
:10470000204630BD78B506460C46042500200090B2
:10471000E802FFF714FF0546042D24D15F48006925
:1047200040F001005D4908613480E802FFF707FFAF
:104730000546042D10D1B01C0090200C0099088073
:10474000E802FFF7FCFE05465448006941F6FE7199
:1047500008405249086106E05048006941F6FE7180
:1047600008404E490861284678BD70B504460D469C
:104770000426F002FFF7E3FE0646042E11D1474857
:10478000006940F00100454908612580F002FFF70B
:10479000D6FE06464148006941F6FE7108403F4991
:1047A0000861304670BD70B505460E460424E0022F
:1047B000FFF7C5FE0446042C17D1394837498860F5
:1047C000384888600846006940F0100008612E8073
:1047D000E002FFF7B4FE0446052C06D02F4800691E
:1047E00041F6EF7108402D490861204670BD2DE962
:1047F000F04304464FF6FF763746B046B1460425EF
:10480000E443E6B2C4F30727C4F307484FEA146948
:10481000E802FFF794FE0546042D49D120481F49C0
:104820008860204888600846006940F010000861F0
:10483000FF2E06D01C4808300680E802FFF77FFEF6
:104840000546042D08D1FF2F06D017480A300780EF
:10485000E802FFF774FE0546042D0AD1B8F1FF0FF8
:1048600007D011480C30A0F80080E802FFF767FE7F
:104870000546042D0AD1B9F1FF0F07D00A480E30C2
:10488000A0F80090E802FFF75AFE0546052D0FD06C
:104890000248006941F6EF71084007E0002002403D
:1048A00023016745AB89EFCD00F8FF1F664908611A
:1048B0002846BDE8F08330B5054604244FF4302087
:1048C000FFF73DFE0446042C41D160485E498860F4
:1048D0005F4888600846006940F02000086108468B
:1048E000006940F0400008614FF43020FFF727FED8
:1048F0000446042C22D15448006941F6DF71084077
:10490000514908610846006940F0100008611DB176
:1049100000205049088002E0A5204E4908804FF44D
:104920003020FFF70CFE0446052C10D046480069E5
:1049300041F6EF7108404449086108E0052C06D0B3
:104940004148006941F6DF7108403F49086120464F
:1049500030BDF0B505460E46174604243B483A499B
:1049600088603B488860E002FFF7E9FD0446042CBC
:1049700019D13548006940F010003349086147F00B
:10498000F800304328433349891C0880E002FFF7D0
:10499000D6FD0446052C06D02B48006941F6EF7180
:1049A0000840294908612046F0BD2748C0698008B1
:1049B00070472548006A704700202349096801F0C4
:1049C000200109B1012000E00020704729B11E4AF2
:1049D000126902431C4B1A6104E01B4A12698243AC
:1049E000194B1A61704701460020012908D1164A67
:1049F000D26902F001020AB1012008E0002006E0BD
:104A0000114AD2680A400AB1012000E00020704734
:104A10000D49C860704704200B49C96801F00101C5
:104A200009B101200EE00849C96801F0040109B18B
:104A3000022007E00449C96801F0100109B1032010
:104A400000E0042070470000002002402301674579
:104A5000AB89EFCD00F8FF1F10B50446CE48844265
:104A600008D10121042000F031FB0021042000F0D6
:104A70002DFB46E0C948844208D10121082000F0FE
:104A800025FB0021082000F021FB3AE0C4488442C5
:104A900008D10121102000F019FB0021102000F0A6
:104AA00015FB2EE0BF48844208D10121202000F0F0
:104AB0000DFB0021202000F009FB22E0BA488442CF
:104AC00008D10121402000F001FB0021402000F02E
:104AD000FDFA16E0B548844208D10121802000F09B
:104AE000F5FA0021802000F0F1FA0AE0B048844293
:104AF00007D10121801500F0E9FA0021A01500F08E
:104B0000E5FA10BD10B50121084600F0DFFA0021DA
:104B1000012000F0DBFA10BD2DE9F041024600252E
:104B20000026002000230024002791F803C00CF089
:104B30000F0591F803C00CF0100CBCF1000F03D06E
:104B400091F802C04CEA050591F800C0BCF1000FD5
:104B500031D0146800202BE04FF0010C0CFA00F368
:104B6000B1F800C00CEA03069E4220D183004FF04A
:104B70000F0C0CFA03F7BC4305FA03FC4CEA0404DF
:104B800091F803C0BCF1280F06D14FF0010C0CFACC
:104B900000FCC2F814C00AE091F803C0BCF1480F51
:104BA00005D14FF0010C0CFA00FCC2F810C0401CFB
:104BB0000828D1D31460B1F800C0BCF1FF0F34DD78
:104BC000546800202EE000F1080C4FF0010808FAAC
:104BD0000CF3B1F800C00CEA03069E4221D1830019
:104BE0004FF00F0C0CFA03F7BC4305FA03FC4CEA38
:104BF000040491F803C0BCF1280F05D100F1080CA2
:104C000008FA0CF8C2F8148091F803C0BCF1480F00
:104C100007D100F1080C4FF0010808FA0CF8C2F8AF
:104C20001080401C0828CED35460BDE8F0814FF6B8
:104C3000FF710180022181700421C170704702461A
:104C4000002093680B400BB1012000E0002070476A
:104C50000146886880B2704702460020D3680B4046
:104C60000BB1012000E0002070470146C86880B207
:104C700070470161704741617047C2684A40C26035
:104C800070470AB1016100E041617047C16070473F
:104C90004FF480320A438261816182618269826954
:104CA000704702460020434B18684FF68073184047
:104CB00040EA021008433F4B186070473E49C86104
:104CC0007047F0B50A46002300240021002500F0BB
:104CD0000046B6F1004F02D1364EF16901E0354E83
:104CE0007168C0F3034583B200F44016B6F5401F67
:104CF00008D121F070612F4E766826F070662D4F36
:104D00007E6012E000F48016B6F5801F06D10326FF
:104D100006FA05F4A14341F0706106E0460D360144
:104D200003FA06F6B14341F0706122B1460D360137
:104D300003FA06F6314300F00046B6F1004F02D107
:104D40001C4EF16101E01B4E7160F0BD30B50022D8
:104D50008B071C0F0F2303FA04F2164B08338C1039
:104D600053F824309343134C08348D1044F8253005
:104D700023468C1053F824308C07240F00FA04F4D7
:104D800023430C4C08348D1044F8253030BD0A49BB
:104D9000DC3108607047000000080140000C014051
:104DA000001001400014014000180140001C0140A7
:104DB000002001400000014000002042DF48006860
:104DC00040F00100DD49086008464068DC490840C1
:104DD000DA49486008460068DA490840D74908605F
:104DE0000846006820F4802008600846406820F4E7
:104DF000FE0048604FF41F0088607047CF49096883
:104E000021F48031CD4A11601146096821F48021D6
:104E10001160B0F5803F03D0B0F5802F0ED106E0D1
:104E2000C649096841F48031C44A116007E0C349AA
:104E3000096841F4A021C14A116000E000BF00BF31
:104E4000704710B501460022002300204A11012AB4
:104E500002D1BA4C236806E0022A02D1B74C236A79
:104E600001E0B64C636A01F01F02012494401C402B
:104E70000CB1012000E0002010BD38B500200090EA
:104E80000024002500BF3120FFF7DBFF0546009816
:104E9000401C00900098B0F5A06F01D0002DF2D01A
:104EA0003120FFF7CEFF08B1012400E000242046A6
:104EB00038BD01460020A14A106820F0F80040EA01
:104EC000C10010607047A04908607047024600208A
:104ED0009A4B586820F47C1042EA01031843974B20
:104EE0005860704798490866704701460020934A09
:104EF000506820F003000843506070478F484068B6
:104F000000F00C007047014600208C4A506820F0E9
:104F1000F00008435060704701460020874A5068FF
:104F200020F4E06008435060704701460020834A47
:104F3000506820F4605040EAC1005060704729B1C9
:104F40007E4A527A02437D4B5A7204E07B4A527A7F
:104F500082437A4B5A7270477B49D8310860704758
:104F600001460020754A506820F4404008435060D4
:104F700070470021714A20321170704A82F8201067
:104F8000012802D004280AD104E001216B4A203212
:104F9000117005E00521694A2032117000E000BF60
:104FA00000BF70476949086070476449096A014356
:104FB000624A11627047654944390860704730B5EC
:104FC00000210022002400235C4D6D6805F00C01D7
:104FD00021B1042905D0082923D105E05C4D0560E5
:104FE00022E05B4D05601FE0544D6D6805F47012C2
:104FF000524D6D6805F48034022505EB92421CB9D0
:10500000544D554305600BE04C4D6D6805F400357B
:105010001DB1504D5543056002E04D4D55430560AF
:1050200002E04B4D056000BF00BF444D6D6805F0C8
:10503000F0010909484D6B5C0568DD4045603F4D56
:105040006D6805F4E061090A434D6B5C4568DD401D
:1050500085603A4D6D6805F46051C90A3E4D6B5C40
:105060004568DD40C560354D6D6805F44041890BEC
:105070003A4D6B5CC568B5FBF3F5056130BD29B1F0
:105080002E4A526902432D4B5A6104E02B4A526961
:1050900082432A4B5A61704729B1284A92690243D8
:1050A000264B9A6104E0254A92698243234B9A6118
:1050B000704729B1214AD2690243204BDA6104E0EA
:1050C0001E4AD26982431D4BDA61704729B11B4ADF
:1050D000D2680243194BDA6004E0184AD26882436E
:1050E000164BDA60704729B1144A12690243134B18
:1050F0001A6104E0114A12698243104B1A61704729
:1051000012494039086070470F49C86470470B491D
:10511000C87170470948406A40F08070074948628A
:10512000704701460020054A92680A400AB10120F2
:1051300000E000207047014988727047001002406B
:105140000000FFF8FFFFF6FE0000424280044242EA
:1051500000127A0000093D0004030020140300201F
:1051600010B50446BE48844208D101218014FFF7DF
:10517000ADFF0021A014FFF7A9FF16E0B948844253
:1051800008D101210014FFF7AEFF00212014FFF722
:10519000AAFF0AE0B448844207D10121C013FFF7F7
:1051A000A2FF0021E013FFF79EFF10BD10B5002203
:1051B000028802F441520B884C8823438C88234395
:1051C000CC8823430C8923434C8923438C89234374
:1051D000CC8923431A430280838B4FF2FF74234010
:1051E00083830B8A038210BD2DE9F04F85B00546FD
:1051F0000C464FF0000902274FF000084FF0010B5A
:105200000026B246A88B4FF240010840A883022036
:105210002884B5F81C90A068022801D100BF38E0AE
:10522000A08810B94FF0010B01E04FF0020B8D4840
:10523000854200D100E000BF6846FFF7C0FEDDF800
:1052400000A0E088B0F5007F0AD14FEA1A2000EBF9
:1052500080004000A168B0FBF1F0401D86B20BE079
:105260004FEA4B10BAFBF0F000EB80004000A16861
:10527000B0FBF1F0401D86B20A20B6FBF0F606F056
:105280000108A6EB0800C0F34F074FF6FF7000EAD5
:105290000828022F01DBFF2F02DD02274FF0000854
:1052A000E08840EA080038432884A088A1890843A0
:1052B000618808432188084340F4006040EA0909F6
:1052C000A5F81C9005B0BDE8F08F00210180418059
:1052D0008180C180018141818181C1810721018259
:1052E00070470021018041808180C180022181605E
:1052F00000218181704721B1028842F04002028082
:1053000004E002884FF6BF731A400280704721B153
:10531000828B42F48062828304E0828B4FF6FF33FB
:105320001A408283704730B5002400230C110125F8
:10533000A540ABB21AB185881D43858002E08588FF
:105340009D43858030BD1AB183880B43838002E082
:1053500083888B43838070478181704701468889A9
:1053600070474FF6FF62914204D0028842F4807287
:10537000028004E002884FF6FF631A400280704703
:1053800021B1828842F00402828004E082884FF6D4
:10539000FB731A408280704702884FF2FF731A40F5
:1053A000028002880A4302807047018841F48051DC
:1053B0000180704721B1028842F40052028004E06B
:1053C00002884DF6FF731A400280704702460020A3
:1053D000012901D0108B00E0908A70470146088AAD
:1053E0007047B1F5804F04D1028842F480420280B8
:1053F00004E002884BF6FF731A40028070470246B1
:10540000002013890B400BB1012000E00020704701
:10541000CA4302817047F0B50246002000240023F1
:10542000002501F00F070126BE40B4B20B11012682
:105430009E40B3B2968806EA03051689264016B147
:105440000DB1012000E00020F0BD10B5002201F0F8
:105450000F040123A3409AB2D343038110BD00007F
:105460000030014000380040003C004010B50446C8
:10547000FB48844209D101218803FFF727FE002160
:105480004FF48040FFF722FE32E0F648844209D113
:1054900001214804FFF727FE00214FF40030FFF7F9
:1054A00022FE25E0F048844209D101218804FFF75B
:1054B0001AFE00214FF48020FFF715FE18E0EB489C
:1054C000844209D10121C804FFF70DFE00214FF4E9
:1054D0000020FFF708FE0BE0E548844208D10121D7
:1054E0000805FFF700FE00214FF48010FFF7FBFDD9
:1054F00010BD2DE9F04786B005460E460024A246B1
:1055000000BFA1460027B08900B100BF2F462C8AFA
:105510004CF6FF700440F08804432C82AC894EF6B0
:10552000F3100440B088318908437189084304436B
:10553000AC81AC8A4FF6FF400440B0890443AC8292
:1055400001A8FFF73CFDC648874202D1DDF810A054
:1055500001E0DDF80CA0A88900F4004040B10AEB9E
:10556000CA0000EB0A1031684900B0FBF1F807E00F
:105570000AEBCA0000EB0A1031688900B0FBF1F8B1
:105580006420B8FBF0F004012009642101FB1089BC
:10559000A88900F4004040B1322000EBC900B0FB04
:1055A000F1F000F00700044308E0322000EB09109E
:1055B0006421B0FBF1F000F00F0004432C8106B031
:1055C000BDE8F0874FF41651016000218180C18051
:1055D00001810C21418100218181704710B5024673
:1055E0000020108A4FF2FF0318400B884C88234399
:1055F0008C882343CC8823431843108210BD00219C
:10560000018041808180C180704721B1828942F44C
:105610000052828104E082894DF6FF731A40828134
:105620007047F0B50346002400260025002040F610
:105630006A17B94200D100BF1846C1F3421401F005
:105640001F06012707FA06F5012C01D10C3004E0F2
:10565000022C01D1103000E014301AB107682F433A
:10566000076002E00768AF430760F0BD1AB1838AA4
:105670000B43838202E0838A8B4383827047028AD2
:105680004FF6F0731A400282028A0A430282704780
:1056900082894FF2FF731A40828182890A43828194
:1056A000704721B1828942F00202828104E082893E
:1056B0004FF6FD731A4082817047028A4FF6DF73FE
:1056C0001A400282028A0A430282704721B1028A8A
:1056D00042F48042028204E0028A4BF6FF731A40D1
:1056E00002827047C1F308028280704701468888B1
:1056F000C0F308007047818941F001018181704742
:10570000028BD2B20283028B42EA012202837047EB
:10571000028B02F47F420283028B0A4302837047AA
:1057200021B1828A42F02002828204E0828A4FF60E
:10573000DF731A408282704721B1828A42F01002E0
:10574000828204E0828A4FF6EF731A4082827047A9
:1057500021B1828A42F00802828204E0828A4FF6F6
:10576000F7731A408282704721B1828942F4004265
:10577000828103E08289C2F30E028281704721B1E7
:10578000828A42F40062828204E0828A4FF2FF73CE
:105790001A4082827047828A4FF6FB731A408282D7
:1057A000828A0A438282704721B1828A42F00202D1
:1057B000828204E0828A4FF6FD731A40828270472B
:1057C00002460020B1F5007F00D100BF13880B40D6
:1057D0000BB1012000E00020704701F40072B2F527
:1057E000007F00D100BFCA430280704770B50246F7
:1057F000002400230025002040F66A16B14200D1A3
:1058000000BFC1F3421501F01F03012606FA03F39E
:10581000012D02D19689334006E0022D02D1168A6D
:10582000334001E0968A33400C12012606FA04F454
:105830001688344013B10CB1012000E0002070BD87
:1058400010B50022002340F66A14A14200D100BF27
:105850000A1201249440A3B2DC43048010BD00006E
:10586000003801400044004000480040004C004027
:10587000005000400CB50020019000906C4800687A
:1058800040F480306A49086000BF6948006800F44D
:10589000003000900198401C0190009818B90198C0
:1058A000B0F5A06FF1D16248006800F4003010B18B
:1058B0000120009001E0002000900098012843D1D1
:1058C0005C48006840F010005A49086008460068CB
:1058D00020F0030008600846006840F002000860FD
:1058E0005348406852494860084640684860084646
:1058F000406840F4806048600846406820F47C10AE
:1059000048600846406840F4E8104860084600686F
:1059100040F08070086000BF4548006800F00070EB
:105920000028F9D04248406820F003004049486010
:105930000846406840F00200486000BF3C484068AC
:1059400000F00C000828F9D10CBD10B5FFF792FF4C
:1059500010BD10B53648006840F0010034490860B9
:1059600008464068344908403149486008460068A4
:10597000324908402E4908600846006820F480201B
:1059800008600846406820F4FE0048604FF41F009D
:105990008860FFF7DAFF4FF000602949086010BD0A
:1059A00010B5002100200022214B5B6803F00C01A0
:1059B00021B1042906D0082928D107E0214B224C27
:1059C000236027E01F4B204C236023E0184B5B68CB
:1059D00003F47010164B5B6803F48032022303EB70
:1059E000904022B9194B4343174C23600DE0104BF4
:1059F0005B6803F4003323B1144B4343124C236020
:105A000003E0104B4343104C236003E00D4B0E4C5E
:105A1000236000BF00BF064B5B68C3F303130C4C4D
:105A2000E15C094B1B68CB40074C236010BD0000B4
:105A300000100240002002400000FFF8FFFFF6FEC9
:105A400008ED00E000127A001803002000093D0074
:105A50001C0300200648804706480047FEE7FEE793
:105A6000FEE7FEE7FEE7FEE7FEE7FEE7FEE7FEE70E
:105A700053590008ED0000082DE9F05F05460020AD
:105A800092469B4688460646814640241BE02846AF
:105A900041464746224600F057F853465A46C01A38
:105AA000914110D311461846224600F03EF82D1AB7
:105AB00067EB01084F4622460120002100F035F82F
:105AC00017EB00094E41201EA4F10104DFDC48461B
:105AD00031462A464346BDE8F09F40EA01039B0752
