:020000040800F2
:10000000A004002001010008770300082D03000868
:100010003103000875010008030C0008000000000F
:10002000000000000000000000000000550500086E
:100030007901000800000000FD03000841060008E7
:100040001B0100081B0100081B0100081B01000820
:100050001B0100081B0100081B0100081B01000810
:100060001B0100081B0100081B0100081B01000800
:100070001B0100081B0100081B0100081B010008F0
:100080001B0100081B0100081B0100081B010008E0
:100090001B0100081B0100081B0100081B010008D0
:1000A0001B0100081B0100081B0100081B010008C0
:1000B0001B0100081B0100081B0100081B010008B0
:1000C0001B0100081B0100081B0100081B010008A0
:1000D0001B010008A90600086D0700081B010008A5
:1000E0001B0100081B0100081B010008DFF80CD0F1
:1000F00000F02EF800480047CD0D0008A0040020B5
:100100000648804706480047FEE7FEE7FEE7FEE7B1
:10011000FEE7FEE7FEE7FEE7FEE7FEE7490600082A
:10012000ED00000830B50B460146002020220124D6
:1001300009E021FA02F59D4205D303FA02F5491BB5
:1001400004FA02F52844151EA2F10102F1DC30BDCB
:10015000064C074D06E0E06840F0010394E8070014
:1001600098471034AC42F6D3FFF7C4FF640E000882
:10017000840E000800BFFEE77047000004480068D6
:1001800020B103480068401E014908607047000024
:100190002C000020002000BF411C0846B1F57A7FEA
:1001A000FAD370472DE9F0410246002500260020D1
:1001B00000230024002791F803C00CF00F0591F8EC
:1001C00003C00CF0100CBCF1000F03D091F802C07A
:1001D0004CEA050591F800C0BCF1000F31D014685D
:1001E00000202BE04FF0010C0CFA00F3B1F800C036
:1001F0000CEA03069E4220D183004FF00F0C0CFA4C
:1002000003F7BC4305FA03FC4CEA040491F803C06D
:10021000BCF1280F06D14FF0010C0CFA00FCC2F81B
:1002200014C00AE091F803C0BCF1480F05D14FF0AB
:10023000010C0CFA00FCC2F810C0401C0828D1D3F5
:100240001460B1F800C0BCF1FF0F34DD5468002029
:100250002EE000F1080C4FF0010808FA0CF3B1F899
:1002600000C00CEA03069E4221D183004FF00F0C20
:100270000CFA03F7BC4305FA03FC4CEA040491F8BA
:1002800003C0BCF1280F05D100F1080C08FA0CF8E6
:10029000C2F8148091F803C0BCF1480F07D100F1F7
:1002A000080C4FF0010808FA0CF8C2F81080401C46
:1002B0000828CED35460BDE8F081000070B5054633
:1002C0000821284600F03EFB00201049088001E08C
:1002D000FFF760FF0D480088642803DA0C480078B7
:1002E0000028F5D00A48007801280BD10948007988
:1002F0000849C97840EA012406480178224606A048
:1003000000F082FC00200249087070BD340000201B
:10031000300000203C00002053656E736F72202572
:100320006420446174613A25640D0A0000BFFEE751
:1003300000BFFEE7B0B502460B464FF6FF7100BFA7
:10034000002010E0155C6940002509E001F001077C
:1003500027B149104AF20107794000E049106D1CAD
:10036000082DF3DB401C9842ECDB0C1244EA012020
:1003700084B22046B0BD704770B5002100230F2223
:10038000C47804B3154C246804F4E064C4F5E06454
:10039000210AC1F10403CA40447804FA03F18478C5
:1003A0001440214309010E4C0678A155047804F04D
:1003B0001F050124AC4005786D11AD0005F1E02565
:1003C000C5F8004109E0047804F01F050124AC40A1
:1003D000044D0678761145F8264070BD0CED00E01E
:1003E00000E400E080E100E002490143024A1160BC
:1003F000704700000000FA050CED00E070470000B7
:1004000029B1064AD2690243044BDA6104E0034A87
:10041000D2698243014BDA6170470000001002404C
:1004200029B1064A12690243044B1A6104E0034AE7
:1004300012698243014B1A617047000000100240AC
:1004400029B1064A92690243044B9A6104E0034AC7
:1004500092698243014B9A6170470000001002408C
:1004600029B1064AD2680243044BDA6004E0034A29
:10047000D2688243014BDA607047000000100240EE
:1004800030B500210022002400232D4D6D6805F0B9
:100490000C0121B1042905D0082923D105E0294DFB
:1004A000056022E0274D05601FE0254D6D6805F4CD
:1004B0007012234D6D6805F48034022505EB9242DD
:1004C0001CB9214D554305600BE01D4D6D6805F4C9
:1004D00000351DB11C4D5543056002E0194D5543D3
:1004E000056002E0174D056000BF00BF144D6D6848
:1004F00005F0F0010909154D6B5C0568DD404560AC
:100500000F4D6D6805F4E061090A104D6B5C45689C
:10051000DD4085600A4D6D6805F46051C90A0B4DD8
:100520006B5C4568DD40C560054D6D6805F4404174
:10053000890B074D6B5CC568B5FBF3F5056130BDF4
:100540000010024000127A0000093D000000002067
:1005500010000020704710B500F002F810BD000038
:100560000CB50020019000903348006840F48030C2
:100570003149086000BF3048006800F40030009046
:100580000198401C0190009818B90198B0F5A06F2F
:10059000F1D12948006800F4003010B1012000902A
:1005A00001E0002000900098012843D12348006812
:1005B00040F01000214908600846006820F0030060
:1005C00008600846006840F0020008601A48406869
:1005D000194948600846406848600846406840F449
:1005E000806048600846406820F47C1048600846F7
:1005F000406840F4E81048600846006840F08070A9
:10060000086000BF0C48006800F000700028F9D0B6
:100610000948406820F003000749486008464068E0
:1006200040F00200486000BF0348406800F00C0042
:100630000828F9D10CBD0000001002400020024043
:1006400010B5FFF79BFD10BD10B51348006840F0D2
:1006500001001149086008464068104908400E49E9
:100660004860084600680E4908400B490860084683
:10067000006820F4802008600846406820F4FE00EE
:1006800048604FF41F008860FFF765FF4FF000607F
:100690000449086010BD0000001002400000FFF88F
:1006A000FFFFF6FE08ED00E010B540F225510448CA
:1006B00000F0E3F940F22551014800F068F910BD5F
:1006C0000038014010B586B00446012144F2040010
:1006D000FFF7B6FE234800F075F94FF40070ADF84F
:1006E000140003208DF8160018208DF8170005A9B6
:1006F0001D48FFF757FD4FF48060ADF8140004204B
:100700008DF8170005A91848FFF74CFD25208DF836
:10071000000003208DF801008DF8020001208DF803
:1007200003006846FFF728FE01940020ADF808009A
:10073000ADF80A00ADF80C00ADF810000C20ADF8D3
:100740000E0001A9074800F0E7F9012240F2255107
:10075000044800F0BCF90121024800F027F906B076
:1007600010BD0000003801400008014070B50024B1
:10077000002540F22551434800F07FF900287AD047
:10078000404800F035FAC4B23F48007840B93E48CE
:1007900001780078401C3C4A10703C48445440E0CA
:1007A00039480078012800D100E00020032C01D155
:1007B000012100E00021084040B133480178007871
:1007C000401C314A1070314844542AE02E480078C9
:1007D00002280BD12C4801780078401C2A4A10705E
:1007E0002A48445480782A4908701AE0264800783C
:1007F000022801DD012000E0002023490A78244975
:100800000978091D8A4201DC012100E0002108402D
:1008100038B11D4801780078401C1B4A10701B48F5
:100820004454194801781A480078401D814222D169
:1008300017480178C91C1548FFF77CFD0546134988
:1008400013480078001D095C104A11480078C01C4C
:10085000105C41EA0020A84208D101200D4908702F
:100860000020094908700A49087004E00020064980
:1008700008700749087040F22551024800F087F8D7
:1008800070BD000000440040310000203C0000200A
:10089000320000203000002010B586B0044601214F
:1008A0004804FFF7ADFD01210420FFF7C9FD2348EF
:1008B00000F088F80420ADF8140003208DF816002D
:1008C00018208DF8170005A91D48FFF76BFC0820BC
:1008D000ADF8140048208DF8170005A91848FFF757
:1008E00061FC26208DF8000003208DF80100042013
:1008F0008DF8020001208DF803006846FFF73CFDEB
:1009000001940020ADF80800ADF80A00ADF80C0025
:10091000ADF810000C20ADF80E0001A9074800F05A
:10092000FBF8012240F22551044800F0D0F80121E3
:10093000024800F03BF806B010BD00000044004043
:100940000008014070B505460E4640210A4800F0F7
:1009500015F800240CE0295D074800F04EF900BFAF
:100960004021054800F07CF80028F9D0601CC4B292
:10097000B442F0DB70BD00000044004001F400729E
:10098000B2F5007F00D100BFCA430280704710B5A6
:100990000022002340F66A14A14200D100BF0A12CF
:1009A00001249440A3B2DC43048010BD21B18289AC
:1009B00042F40052828104E082894DF6FF731A40AE
:1009C0008281704710B504462048844209D1012134
:1009D0008803FFF745FD00214FF48040FFF740FDFD
:1009E00032E01B48844209D101214804FFF718FD79
:1009F00000214FF40030FFF713FD25E01548844235
:100A000009D101218804FFF70BFD00214FF480205C
:100A1000FFF706FD18E01048844209D10121C804FF
:100A2000FFF7FEFC00214FF40020FFF7F9FC0BE07C
:100A30000A48844208D101210805FFF7F1FC002192
:100A40004FF48010FFF7ECFC10BD000000380140AF
:100A50000044004000480040004C0040005000406E
:100A600002460020B1F5007F00D100BF13880B4083
:100A70000BB1012000E00020704770B50246002451
:100A800000230025002040F66A16B14200D100BFC5
:100A9000C1F3421501F01F03012606FA03F3012DED
:100AA00002D19689334006E0022D02D1168A3340E6
:100AB00001E0968A33400C12012606FA04F41688E7
:100AC000344013B10CB1012000E0002070BDF0B53E
:100AD0000346002400260025002040F66A17B9428C
:100AE00000D100BF1846C1F3421401F01F060127D0
:100AF00007FA06F5012C01D10C3004E0022C01D1DB
:100B0000103000E014301AB107682F43076002E08C
:100B10000768AF430760F0BD2DE9F04786B0054692
:100B20000E460024A24600BFA1460027B08900B1AE
:100B300000BF2F462C8A4CF6FF700440F088044317
:100B40002C82AC894EF6F3100440B08831890843FA
:100B5000718908430443AC81AC8A4FF6FF400440DE
:100B6000B0890443AC8201A8FFF78AFC1F48874282
:100B700002D1DDF810A001E0DDF80CA0A88900F496
:100B8000004040B10AEBCA0000EB0A10316849008E
:100B9000B0FBF1F807E00AEBCA0000EB0A1031687D
:100BA0008900B0FBF1F86420B8FBF0F004012009E3
:100BB000642101FB1089A88900F4004040B1322073
:100BC00000EBC900B0FBF1F000F00700044308E0BF
:100BD000322000EB09106421B0FBF1F000F00F00AF
:100BE00004432C8106B0BDE8F087000000380140C6
:100BF00001468888C0F308007047C1F3080282806C
:100C0000704700BFFEE700000FB4054B10B503A905
:100C1000044A029800F018F810BC5DF814FB0000BC
:100C2000B10D00083800002002E008C8121F08C1FA
:100C3000002AFAD170477047002001E001C1121F5D
:100C4000002AFBD1704700002DE9FF4F89B09B4679
:100C50000446002506E025280BD05A460B999047FC
:100C6000641C6D1C20780028F5D10DB02846BDE825
:100C7000F08F0027B8460122474900E0074314F8E7
:100C8000013F203B02FA03F00842F7D120782E28DA
:100C900019D114F8010F47F004072A280ED06FF07D
:100CA0002F022078A0F1300109290CD808EB880127
:100CB00002EB410100EB0108641CF2E70A98641C96
:100CC00050F8048B0A9020780028CED0642808D0F1
:100CD000692806D075281ED05A460B9990476D1C7E
:100CE00058E00A994FF00A0901C90A91002802DA6E
:100CF00040422D2102E0390504D52B218DF820102A
:100D0000012103E0F90704D02021F7E78A4608AE65
:100D10000DE00021FAE70A994FF00A0901C90A918A
:100D2000F7E74946FFF7FEF9303106F8011D0028C4
:100D3000F7D1ADEB060000F12009780701D44FF0A0
:100D40000108C84502DDA8EB090000E0002080464C
:100D5000002706E008A85A46C05D0B9990476D1C15
:100D60007F1C5745F6DB04E030205A460B9990472C
:100D70006D1CB8F10001A8F10108F5DC05E016F8DA
:100D8000010B5A460B9990476D1CB9F10001A9F16E
:100D90000109F4DC641C65E70928010003490860C7
:100DA00000BF024909680029FBD170472C000020D0
:100DB00000BF054A128802F04002002AF9D0C2B2F0
:100DC000014B1B1D1A807047003801402049B1F1CA
:100DD000807F00D31DE021F07F40401E4FF0E022D5
:100DE000506150170F22002807DA13071D0E194B08
:100DF00000F00F04241F1D5503E013071C0E164BB3
:100E00001C5400BF00204FF0E022906107201061C9
:100E100000BF4FF4A060FFF7E7FA4FF4E130FFF7AF
:100E200051FC4FF4E130FFF737FD0A20FFF7B6FF22
:100E30000DE04FF4FA70FFF7B1FF0848FFF73EFAF4
:100E40004FF4FA70FFF7AAFF0548FFF737FAF0E70B
:100E50004019010018ED00E000E400E0140000205B
:100E60001C000020840E0008000000203C00000050
:100E7000280C0008C00E00083C000020640400009C
:100E8000380C000800000000010203040102030402
:100E9000060708090204060801030010000185CFB7
:100EA00002030010000185FC030300100001842DE3
:100EB0000000000000000000000000000000000032
:04000005080000ED02
:00000001FF
