:100F28000338FF0000033B00FF00033E0000FF03FF
:100F380041FFFF000344FF00FF034700FFFF034A90
:100F4800FFFFFF034D0000001820FF000000FF0016
:100F58000000FFFFFF00FF00FF00FFFFFFFFFF0093
:020F6800000087
:100F8800BF0108D2B3120FB4C2B322D2B3C2B31294
:030F98000FB42271
:080BA3007A0079237B007D122A
:020BAB008D5B60
:100BAD00E4F55CF55D7F08FEF55CF55DEFFDC3E5F5
:100BBD005D9DE55C94005026C3E55D9EFD120EE241
:100BCD00FCA805088002C313D8FC5401FD74082548
:100BDD005DF8A605055DE55D70D2055C80CE7408F7
:100BED002FFF74082EFE755C00F55DEFFDC3E55D0E
:100BFD009DE55C9400502A900001120EFBFDC3E5AB
:100C0D005D9EFCEDA804088002C313D8FC5401FDC1
:100C1D007408255DF8A605055DE55D70CE055C8063
:100C2D00CA74082FFF74082EFE755C00F55DEFFD8C
:100C3D00C3E55D9DE55C9400502A900002120EFB09
:100C4D00FDC3E55D9EFCEDA804088002C313D8FC2E
:100C5D005401FD7408255DF8A605055DE55D70CEB2
:100C6D00055C80CA74082EFEE4F55EE55EC3955BF7
:100C7D005024E4F55CF55D7408255DF8E6FF120F70
:100C8D0088055DE55D7002055CC39418E55C940014
:060C9D0040E5055E80D574
:010CA300222E
:100E9300E4F5B2F5B17F0A7E00120E2B7F0A120F22
:100EA3009B120CA47F0A120F9B1209697F0A120F6F
:100EB3009B120A987F0A120F9B7F057E0012000384
:100EC3007F0A120F9B7F0A7E001207567F0A120FBA
:0F0ED3009B7F0A7E0012053B7F64120F9B80B647
:100E2B008E558F567A007920120BA7AF56120F9B57
:100E3B00120BA3AF56120F9B7B007A0079267D1203
:100E4B00120BABAF56120F9B7B007A0079297D12E8
:100E5B00120BABAF56120F9B7B007A00792C7D12D5
:100E6B00120BABAF56120F9B7B007A00792F7D12C2
:100E7B00120BABAF56120F9B7B007A0079357D12AC
:080E8B00120BABAF56020F9BE6
:100CA4008E558F567B007A0079357D13120BAB7FFE
:100CB4000A120F9BE4F5507B007A007920AD5012A4
:100CC4000BAB7F02120F9B0550E550C3941340E712
:100CD4007F0A120F9BE4F5507B007A007923AD5014
:100CE400120BAB7F02120F9B0550E550C3941340C7
:100CF400E77F0A120F9BE4F5507B007A007926AD5A
:100D040050120BAB7F02120F9B0550E550C3941396
:100D140040E77F0A120F9BE4F5507B007A007929A3
:100D2400AD50120BAB7F02120F9B0550E550C394DC
:100D34001340E77F0A120F9BE4F5507B007A007999
:100D44002CAD50120BAB7F02120F9B0550E550C324
:100D5400941340E77F0A120F9BE4F5507B007A005E
:100D6400792FAD50120BAB7F02120F9B0550E5504B
:100D7400C3941340E77F0A120F9BE4F5507B007A7B
:100D8400007935AD50120BAB7F02120F9B0550E575
:0B0D940050C3941340E77F0A020F9B3E
:040969008E558F56C2
:10096D007557FD7558E8E4FFFEC3EF9558EE9557A2
:10097D0050070FBF00010E80F07B007A0079267DB5
:10098D0009120BABE4FEFFC3EF9558EE9557500AD5
:10099D000558E55870F1055780ED7B007A007923F5
:1009AD007D08120BABE4FEFFC3EF9558EE95575043
:1009BD00070FBF00010E80F07B007A0079207D07C4
:1009CD00120BABE4FEFFC3EF9558EE955750070F92
:1009DD00BF00010E80F07B007A00792F7D06120B8F
:1009ED00ABE4FEFFC3EF9558EE955750070FBF00D0
:1009FD00010E80F07B007A00792C7D05120BABE4A3
:100A0D00FEFFC3EF9558EE955750070FBF00010E2F
:100A1D0080F07B007A0079297D04120BABE4FEFF98
:100A2D00C3EF9558EE955750070FBF00010E80F09C
:100A3D007B007A0079267D03120BABE4FEFFC3EF3A
:100A4D009558EE955750070FBF00010E80F07B00B3
:100A5D007A0079237D02120BABE4FEFFC3EF9558AC
:100A6D00EE955750070FBF00010E80F07B007A0006
:100A7D0079207D01120BABE4FEFFC3EF9558EE9587
:0A0A8D005750070FBF00010E80F064
:010A9700223C
:040A98008E558F5692
:100A9C007559FD755AE8120FAB7B007A00792F7DE2
:100AAC0012120BAB120FAB7B007A00792C7D11125A
:100ABC000BAB120FAB7B007A0079297D10120BABBC
:100ACC00120FAB7B007A0079267D0F120BAB120F45
:100ADC00AB7B007A0079237D0E120BAB120FAB7B34
:100AEC00007A0079207D0D120BAB120FAB7B007AD4
:100AFC0000792F7D0C120BAB120FAB7B007A0079B7
:100B0C002C7D0B120BAB120FAB7B007A0079297D7D
:100B1C000A120BAB120FAB7B007A0079267D0912FF
:100B2C000BAB120FAB7B007A0079237D08120BAB59
:100B3C00120FAB7B007A0079207D07120BAB120FE2
:100B4C00AB7B007A00792F7D06120BAB120FAB7BBF
:100B5C00007A00792C7D05120BAB120FAB7B007A5F
:100B6C000079297D04120BAB120FAB7B007A007954
:100B7C00267D03120BAB120FAB7B007A0079237D21
:100B8C0002120BAB120FAB7B007A0079207D0112A5
:070B9C000BAB7F64020F9B0D
:040003008E558F5631
:100007007559FD755AE8120FAB7B007A0079207D90
:1000170012120BABAF56120F9B120FAB7B007A007D
:1000270079207D12120BAB120FAB7B007A0079207F
:100037007D10120BAB120FAB7B007A0079207D0E7F
:10004700120BAB120FAB7B007A0079207D0C120BE1
:10005700AB120FAB7B007A0079237D0A120BAB1230
:100067000FAB7B007A0079237D08120BAB120FAB25
:100077007B007A0079207D06120BAB120FAB7B0059
:100087007A0079207D04120BAB120FAB7B007A004C
:1000970079207D02120BABAF56120F9B120FAB7B71
:1000A700007A0079207D3E120BAB120FAB7B007AF2
:1000B7000079207D10120BAB120FAB7B007A007911
:1000C700207D0E120BAB120FAB7B007A0079237DDC
:1000D7000C120BAB120FAB7B007A0079237D0A124F
:1000E7000BAB120FAB7B007A0079237D08120BABA9
:1000F700120FAB7B007A0079237D06120BAB120F30
:10010700AB7B007A0079207D04120BAB120FAB7B1F
:10011700007A0079207D02120BABAF56120F9B12AB
:100127000FAB7B007A0079207D12120BAB120FAB5D
:100137007B007A0079207D10120BAB120FAB7B008E
:100147007A0079237D0E120BAB120FAB7B007A007E
:1001570079237D0C120BAB120FAB7B007A0079234E
:100167007D0A120BAB120FAB7B007A0079237D0857
:10017700120BAB120FAB7B007A0079237D06120BB3
:10018700AB120FAB7B007A0079237D04120BAB1205
:100197000FAB7B007A0079207D02120BABAF5612B2
:1001A7000F9B120FAB7B007A0079207D12120BABED
:1001B700120FAB7B007A0079237D10120BAB120F65
:1001C700AB7B007A0079237D0E120BAB120FAB7B52
:1001D700007A0079237D0C120BAB120FAB7B007AF0
:1001E7000079237D0A120BAB120FAB7B007A0079E3
:1001F700237D08120BAB120FAB7B007A0079237DAE
:1002070006120BAB120FAB7B007A0079237D041229
:100217000BAB120FAB7B007A0079237D02120BAB7D
:10022700AF56120F9B120FAB120BA3120FAB7B0033
:100237007A0079237D10120BAB120FAB7B007A008B
:1002470079237D0E120BAB120FAB7B007A0079235B
:100257007D0C120BAB120FAB7B007A0079237D0A62
:10026700120BAB120FAB7B007A0079237D08120BC0
:10027700AB120FAB7B007A0079237D06120BAB1212
:100287000FAB7B007A0079237D04120BAB120FAB07
:100297007B007A0079237D02120BABAF56120F9BBE
:1002A7007F64120F9B120FAB7B007A0079267D12B9
:1002B700120BAB120FAB7B007A0079237D10120B68
:1002C700AB120FAB7B007A0079237D0E120BAB12BA
:1002D7000FAB7B007A0079237D0C120BAB120FABAF
:1002E7007B007A0079237D0A120BAB120FAB7B00E0
:1002F7007A0079237D08120BAB120FAB7B007A00D3
:1003070079237D06120BAB120FAB7B007A007923A2
:100317007D04120BAB120FAB7B007A0079237D02B1
:10032700120BABAF56120F9B120FAB7B007A007903
:10033700267D12120BAB120FAB7B007A0079267D5C
:1003470010120BAB120FAB7B007A0079237D0E12D4
:100357000BAB120FAB7B007A0079237D0C120BAB32
:10036700120FAB7B007A0079237D0A120BAB120FB9
:10037700AB7B007A0079237D08120BAB120FAB7BA6
:10038700007A0079237D06120BAB120FAB7B007A44
:100397000079237D04120BAB120FAB7B007A007937
:1003A700267D02120BABAF56120F9B120FAB7B00D1
:1003B7007A0079267D12120BAB120FAB7B007A0005
:1003C70079267D10120BAB120FAB7B007A007926D2
:1003D7007D0E120BAB120FAB7B007A0079237D0CDD
:1003E700120BAB120FAB7B007A0079237D0A120B3D
:1003F700AB120FAB7B007A0079237D08120BAB128F
:100407000FAB7B007A0079237D06120BAB120FAB83
:100417007B007A0079267D04120BAB120FAB7B00B1
:100427007A0079267D02120BABAF56120F9B120F83
:10043700AB7B007A0079267D12120BAB120FAB7BD8
:10044700007A0079267D10120BAB120FAB7B007A76
:100457000079267D18120BAB120FAB7B007A00795F
:10046700267D0C120BAB120FAB7B007A0079237D34
:100477000A120BAB120FAB7B007A0079237D0812AF
:100487000BAB120FAB7B007A0079267D06120BAB04
:10049700120FAB7B007A0079267D04120BAB120F8B
:1004A700AB7B007A0079267D02120BABAF56120F99
:1004B7009B120FAB7B007A0079267D12120BAB12D1
:1004C7000FAB7B007A0079267D10120BAB120FABB6
:1004D7007B007A0079267D0E120BAB120FAB7B00E7
:1004E7007A0079267D0C120BAB120FAB7B007A00DA
:1004F70079267D0A120BAB120FAB7B007A007926A7
:100507007D08120BAB120FAB7B007A0079267D06B4
:10051700120BAB120FAB7B007A0079267D04120B0E
:10052700AB120FAB7B007A0079267D02120BABAFC3
:0405370056020F9BBE
:040756008E558F56D7
:10075A007559FD755AE8120FAB7B007A0079207D36
:10076A0012120BAB120FAB7B007A0079237D0F12AA
:10077A000BAB120FAB7B007A0079267D0C120BAB08
:10078A00120FAB7B007A0079297D09120BAB120F8D
:10079A00AB7B007A00792C7D06120BAB120FAB7B78
:1007AA00007A00792F7D03120BABAF56120F9B1202
:1007BA000FAB120BA3120FAB7B007A0079267D0FC9
:1007CA00120BAB120FAB7B007A0079297D0C120B4E
:1007DA00AB120FAB7B007A00792C7D09120BAB129E
:1007EA000FAB7B007A00792F7D06120BAB120FAB91
:1007FA007B007A0079207D03120BABAF56120F9B58
:10080A00120FAB7B007A0079267D12120BAB120F06
:10081A00AB7B007A0079297D0F120BAB120FAB7BF1
:10082A00007A00792C7D0C120BAB120FAB7B007A8D
:10083A0000792F7D09120BAB120FAB7B007A00797E
:10084A00207D06120BAB120FAB7B007A0079237D59
:10085A0003120BABAF56120F9B120FAB7B007A0041
:10086A0079297D12120BAB120FAB7B007A00792C1F
:10087A007D0F120BAB120FAB7B007A00792F7D0C28
:10088A00120BAB120FAB7B007A0079207D09120B99
:10089A00AB120FAB7B007A0079237D06120BAB12E9
:1008AA000FAB7B007A0079267D03120BABAF561291
:1008BA000F9B120FAB7B007A00792C7D12120BABC7
:1008CA00120FAB7B007A00792F7D0F120BAB120F40
:1008DA00AB7B007A0079207D0C120BAB120FAB7B3D
:1008EA00007A0079237D09120BAB120FAB7B007AD9
:1008FA000079267D06120BAB120FAB7B007A0079CA
:10090A00297D03120BABAF56120F9B120FAB7B0064
:10091A007A00792F7D12120BAB120FAB7B007A0093
:10092A0079207D0F120BAB120FAB7B007A00792373
:10093A007D0C120BAB120FAB7B007A0079267D0976
:10094A00120BAB120FAB7B007A0079297D06120BD2
:0F095A00AB120FAB7B007A00792C7D03020BAB45
:04053B008E558F56F4
:10053F007559FD755AE8120FAB7B007A0079357D3E
:10054F0012120BAB120FAB7B007A0079357D0F12B5
:10055F000BAB120FAB7B007A0079357D0C120BAB16
:10056F00120FAB7B007A0079357D09120BAB120F9E
:10057F00AB7B007A0079357D06120BAB120FAB7B8C
:10058F00007A0079207D03120BABAF56120F9B122E
:10059F000FAB7B007A0079357D12120BAB120FABCC
:1005AF007B007A0079357D0F120BAB120FAB7B00FE
:1005BF007A0079357D0C120BAB120FAB7B007A00F2
:1005CF0079357D09120BAB120FAB7B007A007920C6
:1005DF007D06120BAB120FAB7B007A0079237D03E4
:1005EF00120BABAF56120F9B120FAB7B007A007939
:1005FF00357D12120BAB120FAB7B007A0079357D74
:10060F000F120BAB120FAB7B007A0079357D0C12FA
:10061F000BAB120FAB7B007A0079207D09120BAB6D
:10062F00120FAB7B007A0079237D06120BAB120FF2
:10063F00AB7B007A0079267D03120BABAF56120FFE
:10064F009B120FAB7B007A0079357D12120BAB1228
:10065F000FAB7B007A0079357D0F120BAB120FAB0E
:10066F007B007A0079207D0C120BAB120FAB7B0055
:10067F007A0079237D09120BAB120FAB7B007A0046
:10068F0079267D06120BAB120FAB7B007A0079290E
:10069F007D03120BABAF56120F9B120FAB7B007A81
:1006AF000079357D12120BAB120FAB7B007A0079FC
:1006BF00207D0F120BAB120FAB7B007A0079237DDD
:1006CF000C120BAB120FAB7B007A0079267D09124F
:1006DF000BAB120FAB7B007A0079297D06120BABA7
:1006EF00120FAB7B007A00792C7D03120BABAF5648
:1006FF00120F9B120FAB7B007A0079207D12120B29
:10070F00AB120FAB7B007A0079237D0F120BAB126C
:10071F000FAB7B007A0079267D0C120BAB120FAB5F
:10072F007B007A0079297D09120BAB120FAB7B008E
:10073F007A00792C7D06120BAB120FAB7B007A007F
:07074F00792F7D03020BABC3
:100F6B00E4FFFEE4FDFC0DBD00010CED64C84C700C
:0C0F7B00F50FBF00010EEF64FA4E70E7A6
:010F87002247
:020F9B00AB07A2
:0D0F9D00E4FAEAC39B5006120F6B0A80F5C0
:010FAA002224
:050FB400007F04DFFED8
:010FB9002215
:080FAB007F0E7E1EDEFEDFFC5E
:010FB300221B
:03000000020D9F4F
:0C0D9F00787FE4F6D8FD75815E020DE659
:100EE200BB010689828A83E0225002E722BBFE020E
:090EF200E32289828A83E4932241
:100EFB00BB010CE58229F582E5833AF583E02250AC
:100F0B0006E92582F8E622BBFE06E92582F8E222F5
:0D0F1B00E58229F582E5833AF583E493220F
:100DAB00020E93E493A3F8E493A34003F68001F2BD
:100DBB0008DFF48029E493A3F85407240CC8C33349
:100DCB00C4540F4420C8834004F456800146F6DF18
:100DDB00E4800B0102040810204080900F28E47E71
:100DEB00019360BCA3FF543F30E509541FFEE4930D
:100DFB00A360010ECF54C025E060A840B8E493A3D4
:100E0B00FAE493A3F8E493A3C8C582C8CAC583CAFE
:100E1B00F0A3C8C582C8CAC583CADFE9DEE780BEB6
:010F6A000086
:00000001FF
