:020000040800F2
:10000000F0080020D5010008990F00089D0E000897
:10001000950F0008F9090008491E000800000000BB
:10002000000000000000000000000000451400086F
:10003000A50B000800000000311100088D16000813
:10004000EF010008EF010008EF010008EF010008D0
:10005000EF010008EF010008EF010008EF010008C0
:10006000EF010008EF010008EF010008EF010008B0
:10007000EF010008EF010008EF010008EF010008A0
:10008000EF010008EF010008EF010008EF01000890
:10009000EF010008EF010008EF010008EF01000880
:1000A000EF010008EF010008EF010008EF01000870
:1000B000EF010008EF010008EF010008EF01000860
:1000C000EF010008EF010008EF010008EF01000850
:1000D000EF010008EF010008EF010008EF01000840
:1000E000EF010008EF010008EF010008EF01000830
:1000F000EF010008EF010008EF010008EF01000820
:10010000EF010008EF010008EF010008EF0100080F
:10011000EF010008EF010008EF010008EF010008FF
:10012000EF010008EF010008EF010008EF010008EF
:1001300000F002F800F03FF80AA090E8000C8244BA
:100140008344AAF10107DA4501D100F034F8AFF297
:10015000090EBAE80F0013F0010F18BFFB1A43F0A5
:10016000010318477022000090220000103A24BFBB
:1001700078C878C1FAD8520724BF30C830C144BF0C
:1001800004680C607047000000230024002500264E
:10019000103A28BF78C1FBD8520728BF30C148BFEA
:1001A0000B607047642900F06B80002070471FB51A
:1001B0001FBD10B510BD00F0B1F91146FFF7F7FFF4
:1001C00001F0E8FE00F0CFF903B4FFF7F2FF03BC43
:1001D00001F0CFFE0948804709480047FEE7FEE7E7
:1001E000FEE7FEE7FEE7FEE7FEE7FEE7FEE7FEE7E7
:1001F00004480549054A064B70470000951600085B
:1002000031010008F0020020F0080020F004002076
:10021000F0040020704700000FB4044910B503AA91
:10022000029800F04DF910BC5DF814FB3800002076
:1002300070B5044685690068C10601D5302600E026
:100240002026C00707D070BDD4E901213046904771
:10025000206A401C20626D1EF6D570BD70B5044644
:1002600085690078C00707D170BDD4E9012120203D
:100270009047206A401C20626D1EF6D570BD0000BC
:100280002DE9F0410646002410687529314616A56F
:1002900010D0AFF30080002802DA404213A507E037
:1002A00031688A0701D512A502E0490704D511A5D6
:1002B000012401E0AFF3008000210A2206F12407A7
:1002C00009E0B0FBF2FCB0FBF2F302FB1C003030A3
:1002D00078541846491C0028F3D123462A46304654
:1002E000BDE8F04100F093B8000000002D000000D0
:1002F0002B000000200000002DE9F0474FF0000A1D
:1003000089460446C0F820A02046E16888470028B6
:1003100076D0252806D0D4E901219047206A401CD8
:100320002062F1E7E168204600258847C4F81CA058
:1003300006460027C4F818A02A2E09D0304601F03E
:1003400011FE38B304EB8708303EC8F8186019E096
:1003500059F8041B204604EB87029161E168884745
:10036000012F064618D1E069002820DA25F0200583
:100370001DE0D8F8180000EB800006EB4000303894
:10038000C8F818002046E1688847064601F0EAFDF3
:100390000028EED1012F0AD02E2E08D12046E16888
:1003A00088477F1C0646022F45F02005C4DBA06964
:1003B000002803DA404245F00105A061E80701D0BA
:1003C00025F01005B6B1A6F14100192802D8203653
:1003D00045F400654A463146204625604D46FFF704
:1003E000E1FE58B1012806D0ED1D25F0070000F10F
:1003F000080989E704E005F1040985E730468AE742
:10040000206ABDE8F08770477047704770472DE954
:10041000F0470D4699469246044600F124080168CB
:10042000880604D5E06921F01001216000E0012078
:10043000A84201DD471B00E00027A1697A1902EB01
:100440000900081AA0612078C00602D42046FFF7F0
:10045000EFFE002608E0D4E901211AF806009047D3
:10046000206A401C761C20624E45F4DB2078C006D2
:100470000AD52046FFF7DCFE06E0D4E90121302052
:100480009047206A401C2062381EA7F10107F4DC67
:1004900007E0D4E9012118F805009047206A401CC4
:1004A0002062281EA5F10105F3DC2046FFF7D6FEE9
:1004B0002078000602D50220BDE8F0870120FBE786
:1004C000074B70B50D467B4400F011F804462846F2
:1004D00000F020F810B14FF0FF3070BD204670BD25
:1004E000AF1A000001694A1C02610878704700B524
:1004F0008FB0CDE901310021059105497944CDE95D
:10050000031011466846FFF7F7FE0FB000BD00006C
:10051000E5FFFFFF007B00F080007047754600F0AC
:1005200029F8AE4605006946534620F00700854687
:1005300018B020B5FFF75CFEBDE820404FF0000684
:100540004FF000074FF000084FF0000B21F00701BB
:10055000AC46ACE8C009ACE8C009ACE8C009ACE8FE
:10056000C0098D4670470446AFF300802046FFF770
:100570002BFE0000004870478C02002021B18268E9
:1005800042F00102826003E0826822F00102826090
:100590007047000000B591B000F00CFB012148024B
:1005A00000F0C6FE4FF4004000F086FE5C4800F00C
:1005B000C9F801208DF8350000200F904FF460201D
:1005C0000E9000200C9010208DF8400001208DF836
:1005D00034000CA9524800F05DF9072301220421E0
:1005E0004F4800F07FF90723022205214C4800F014
:1005F00079F9072303220621494800F073F90723FC
:1006000004221146464800F06DF9072305221146E1
:10061000434800F067F9072306221946404800F0D6
:1006200061F907231A4604213D4800F05BF90723CE
:10063000082205213A4800F055F90723092206212E
:10064000374800F04FF907230A220421344800F00C
:1006500049F907230B220521314800F043F907230C
:100660000C2219462E4800F03DF907230D220421E3
:100670002B4800F037F907230E220521284800F007
:1006800031F907230F220621254800F02BF9072313
:1006900010221946224800F025F90121204800F0D7
:1006A00045F801211E48FFF769FF1D4800F076F963
:1006B00000BF1B4800F0E4F80028FAD1184800F009
:1006C0007DF900BF164800F06BF80028FAD1C02071
:1006D0000490002003900B90124802904FF4806029
:1006E000089080200690202009900D484C30019001
:1006F00080150790002005904FF400500A900121CA
:10070000084600F0E5FD084800F088F901A9064810
:1007100000F02AFA0121044800F074F911B000BD7C
:1007200000240140740000200800024021B18268CA
:1007300042F48072826003E0826822F480728260F8
:100740007047000010B504461248844208D10121C8
:10075000401500F0FDFD0021601500F0F9FD17E0E7
:100760000D48844208D10121001500F0F1FD00215F
:10077000201500F0EDFD0BE00848844208D101216E
:10078000C80300F0E5FD00214FF4004000F0E0FD5B
:1007900010BD00000024014000280140003C014041
:1007A000014600208A6802F004020AB1012000E03C
:1007B0000020704770B500212D4800F0F4F80020AB
:1007C0002C4908802C49088000253FE02807040EAA
:1007D0002A4830F814100246E01C32F81000014498
:1007E000A01D32F81000014404F1090032F8100095
:1007F000014404F10C0032F810000844052190FB7C
:10080000F1F01C49098808441A4908801146601C07
:1008100031F81010201D32F810000144E01D32F8AC
:100820001000014404F10A0032F81000014404F100
:100830000D0032F810000844052190FBF1F00E493C
:10084000098808440C490880681CC5B20C2DBDDB22
:10085000084800880C2190FBF1F006490880064802
:1008600000880C2190FBF1F00349088070BD000066
:1008700000240140340000203600002074000020D5
:10088000014600208A6802F008020AB1012000E057
:100890000020704730B502460020002350680F4CFE
:1008A00020400D790C6844EA05242043506090688C
:1008B0000B4C2040D1E902542C434D7944EA4504C5
:1008C00020439060D06A20F470000C7C641EE4B277
:1008D000234340EA0350D06230BD0000FFFEF0FF2A
:1008E000FDF7F1FFF0B504460D4600200021092D6B
:1008F00011DDE068A5F10A0606EB4607072606FAB1
:1009000007F18843A5F10A0606EB460603FA06F14D
:100910000843E0600CE0206905EB4507072606FA6E
:1009200007F1884305EB450603FA06F10843206109
:10093000072A0FDA606B561E06EB86071F2606FA9B
:1009400007F18843561E06EB860605FA06F10843B2
:10095000606322E00D2A0FDA206BD61F06EB8607B4
:100960001F2606FA07F18843D61F06EB860605FA0E
:1009700006F10843206310E0E06AA2F10D0606EBE1
:1009800086071F2606FA07F18843A2F10D0606EB3B
:10099000860605FA06F10843E062F0BD816841F081
:1009A00008018160704721B1826842F4A002826030
:1009B00003E0826822F4A00282607047816841F0FF
:1009C000040181607047000010B501210148FFF764
:1009D000EAFF10BD00240140002001490860704773
:1009E0002800002010B5FFF7E5FEFFF7EDFF00F04F
:1009F0009FFD00F0E9FD10BD00BFFEE710B5FFF759
:100A0000F1FF10BD21B1026842F00102026004E072
:100A100002684FF6FE731A400260704701684FF695
:100A2000FE72114001600021016041608160C1607F
:100A30004B49884208D14A490839496841F00F01B9
:100A4000474A083A51608AE045491431884208D142
:100A500043490839496841F0F001414A083A516078
:100A60007DE03F492831884208D13D49083949682D
:100A700041F470613A4A083A516070E038493C31BB
:100A8000884208D136490839496841F47041344AEE
:100A9000083A516063E032495031884208D1304908
:100AA0000839496841F470212D4A083A516056E0EE
:100AB0002B496431884208D129490839496841F4F1
:100AC0007001274A083A516049E025497831884247
:100AD00008D123490839496841F07061204A083A31
:100AE00051603CE01F49884206D1011F096841F06E
:100AF0000F01021F116032E01A491431884208D1F7
:100B00001849091F096841F0F001164A121F1160C7
:100B100025E014492831884208D11249091F096883
:100B200041F470610F4A121F116018E00D493C3109
:100B3000884208D10B49091F096841F47041094AEC
:100B4000121F11600BE007495031884207D1054957
:100B5000091F096841F47021024A121F1160704791
:100B6000080002400804024010B50022026847F65F
:100B7000F0739A430C6A8B6823430C6923434C69D6
:100B800023438C692343CC6923434C6A23438C6AF7
:100B900023431A430260CB6843600B6883604B6851
:100BA000C36010BD7047002100E0491C8142FCD3A6
:100BB0007047000008B50121042000F0B9FB0020B7
:100BC0008DF80300F020ADF8000003208DF802003E
:100BD0006946024800F068F808BD000000080140BE
:100BE00010B504462948844208D10121042000F0B0
:100BF000AFFB0021042000F0ABFB46E02448844218
:100C000008D10121082000F0A3FB0021082000F0FA
:100C10009FFB3AE01F48844208D10121102000F0D8
:100C200097FB0021102000F093FB2EE01A4884422D
:100C300008D10121202000F08BFB0021202000F0B2
:100C400087FB22E01548844208D10121402000F0B2
:100C50007FFB0021402000F07BFB16E0104884421F
:100C600008D10121802000F073FB0021802000F0DA
:100C70006FFB0AE00B48844207D10121801500F088
:100C800067FB0021A01500F063FB10BD00080140C8
:100C9000000C014000100140001401400018014008
:100CA000001C0140002001402DE9F04102460025D2
:100CB0000026002000230024002791F803C00CF038
:100CC0000F0591F803C00CF0100CBCF1000F03D01D
:100CD00091F802C04CEA050591F800C0BCF1000F84
:100CE00031D0146800202BE04FF0010C0CFA00F317
:100CF000B1F800C00CEA03069E4220D183004FF0F9
:100D00000F0C0CFA03F7BC4305FA03FC4CEA04048D
:100D100091F803C0BCF1280F06D14FF0010C0CFA7A
:100D200000FCC2F814C00AE091F803C0BCF1480FFF
:100D300005D14FF0010C0CFA00FCC2F810C0401CA9
:100D40000828D1D31460B1F800C0BCF1FF0F34DD26
:100D5000546800202EE000F1080C4FF0010808FA5A
:100D60000CF3B1F800C00CEA03069E4221D18300C7
:100D70004FF00F0C0CFA03F7BC4305FA03FC4CEAE6
:100D8000040491F803C0BCF1280F05D100F1080C50
:100D900008FA0CF8C2F8148091F803C0BCF1480FAF
:100DA00007D100F1080C4FF0010808FA0CF8C2F85E
:100DB0001080401C0828CED35460BDE8F0810000AC
:100DC000F0B50A46002300240021002500F000466B
:100DD000B6F1004F02D11D4EF16901E01B4E716862
:100DE000C0F3034583B200F44016B6F5401F08D1A6
:100DF00021F07061154E766826F07066134F7E60A4
:100E000012E000F48016B6F5801F06D1032606FA1C
:100E100005F4A14341F0706106E0460D360103FA86
:100E200006F6B14341F0706122B1460D360103FA76
:100E300006F6314300F00046B6F1004F02D1034EF2
:100E4000F16101E0014E7160F0BD00000000014061
:100E5000416170470161704708B50121042000F02D
:100E600067FA18208DF803004FF40070ADF8000009
:100E700001208DF8020069460748FFF715FF48205A
:100E80008DF803004FF48060ADF800006946024819
:100E9000FFF70AFF08BD00000008014000BFFEE7A1
:100EA00010B504461CB1012000F050F802E000200B
:100EB00000F04CF810BD000010B508480068A628E6
:100EC00005D806480068401C0449086010BD002091
:100ED0000249086000F018F800BFF7E74000002062
:100EE00010B5084800681F2805D806480068401C4F
:100EF0000449086010BD00200249086000F004F8B1
:100F000000BFF7E74000002010B50E48007800F061
:100F1000010058B14FF400510B48FFF79BFF0948FF
:100F2000008820F00100074908800AE04FF40051D2
:100F30000548FFF78DFF0348008840F00100014994
:100F4000088010BD3C0000200010014038B5044668
:100F5000B4B10121102000F0EBF910208DF803004E
:100F60004002ADF8000002208DF8020069460848F2
:100F7000FFF79AFE4FF400510548FFF769FF06E0BE
:100F80000121102000F0E4F90148FFF729FE38BDE7
:100F90000010014000BFFEE77047000070B500215F
:100FA00000230F22C47804B3154C246804F4E064D1
:100FB000C4F5E064210AC1F10403CA40447804FA8C
:100FC00003F184781440214309010E4C0678A155A1
:100FD000047804F01F050124AC4005786D11AD00C4
:100FE00005F1E025C5F8004109E0047804F01F058B
:100FF0000124AC40044D0678761145F8264070BDBA
:101000000CED00E000E400E080E100E02DE9F84FA5
:1010100005460C46A089284400B2A081B4F90C0012
:10102000B0F5967F03DD4FF49670A08107E0B4F928
:101030000C0010F5967F02DA4FF6D460A081B4F967
:101040000E10681A01F06CF88246A16801F080F871
:101050008046B4F90C0001F063F80090616801F07B
:1010600077F88246284601F05BF80090216801F08D
:101070006FF88346514600F0D5FF8146414600F0A7
:10108000D1FF074601F030F806B2B6F5617F02DB0A
:1010900040F2833603E016F5617F00DC074E207CCA
:1010A000012807D16582E089281A00B2A082E68271
:1010B00000202074E5813046BDE8F88F7DFCFFFFFD
:1010C00010B50446B4F5617F01DB40F2833421465C
:1010D000014800F0B8FD10BD0008004010B50446FE
:1010E000B4F5617F01DB40F283342146014800F012
:1010F000ACFD10BD0008004010B50446B4F5617F9A
:1011000001DB40F283342146014800F0A0FD10BD10
:101110000008004010B50446B4F5617F01DB40F2E1
:1011200083342146014800F094FD10BD00080040C2
:101130007047000010B588B00446002C7ED0002116
:101140005A4800F025FB00214FF0804000F020FBC2
:101150000121082000F0ECF818208DF81F004FF452
:10116000F860ADF81C0001208DF81E0007A950485A
:10117000FFF79AFD0121084600F0DAF801214D48F9
:10118000FFF71EFE0121084600F0B2F80020ADF87E
:101190001600ADF8120040F28330ADF814000120C3
:1011A000ADF8100004A9800700F056FD01210420CD
:1011B00000F09EF80020ADF81600ADF8120040F2E5
:1011C0008330ADF814000120ADF8100004A93748B1
:1011D00000F042FD6020ADF800000120ADF80200F3
:1011E0000020ADF808006946304800F0D1FB6946A0
:1011F0002E4800F023FC69462C4800F07FFC69462D
:101200002A4800F0D5FC69464FF0804000F076FC9B
:101210000821264800F008FC0821244800F060FC62
:101220000821224800F0BAFC0821204800F0FEFC0A
:101230000821C80600F0B2FC012100E024E01B48B0
:1012400000F09AFA0121880700F096FA0021174869
:1012500000F0F9FC0021154800F0F7FC00211348CC
:1012600000F0F5FC0021114800F0F3FC00214FF0E4
:10127000804000F0ECFC0121880700F089FA012190
:101280000A4800F085FA0FE000214FF0804000F09E
:101290007FFA0021054800F07BFA4FF0804000F013
:1012A00083FA024800F080FA08B010BD0008004040
:1012B000000C01400002180001460020034A50685B
:1012C00020F4404008435060704700000010024086
:1012D00029B1064A52690243044B5A6104E0034AA9
:1012E00052698243014B5A6170470000001002406E
:1012F00029B1064AD2690243044BDA6104E0034A89
:10130000D2698243014BDA6170470000001002404D
:1013100029B1064A12690243044B1A6104E0034AE8
:1013200012698243014B1A617047000000100240AD
:1013300029B1064A92690243044B9A6104E0034AC8
:1013400092698243014B9A6170470000001002408D
:1013500029B1064AD2680243044BDA6004E0034A2A
:10136000D2688243014BDA607047000000100240EF
:1013700030B500210022002400232D4D6D6805F0BA
:101380000C0121B1042905D0082923D105E0294DFC
:10139000056022E0274D05601FE0254D6D6805F4CE
:1013A0007012234D6D6805F48034022505EB9242DE
:1013B0001CB9214D554305600BE01D4D6D6805F4CA
:1013C00000351DB11C4D5543056002E0194D5543D4
:1013D000056002E0174D056000BF00BF144D6D6849
:1013E00005F0F0010909154D6B5C0568DD404560AD
:1013F0000F4D6D6805F4E061090A104D6B5C45689E
:10140000DD4085600A4D6D6805F46051C90A0B4DD9
:101410006B5C4568DD40C560054D6D6805F4404175
:10142000890B074D6B5CC568B5FBF3F5056130BDF5
:101430000010024000127A0000093D001400002054
:1014400024000020704710B500F002F810BD000025
:101450000CB50020019000903348006840F48030C3
:101460003149086000BF3048006800F40030009047
:101470000198401C0190009818B90198B0F5A06F30
:10148000F1D12948006800F4003010B1012000902B
:1014900001E0002000900098012843D12348006813
:1014A00040F01000214908600846006820F0030061
:1014B00008600846006840F0020008601A4840686A
:1014C000194948600846406848600846406840F44A
:1014D000806048600846406820F47C1048600846F8
:1014E000406840F4E81048600846006840F08070AA
:1014F000086000BF0C48006800F000700028F9D0B8
:101500000948406820F003000749486008464068E1
:1015100040F00200486000BF0348406800F00C0043
:101520000828F9D10CBD0000001002400020024044
:1015300010B520480068B0F5FA7F00D910BD1D48ED
:101540000068B0F5FA7F15D11B4800684FF4FA71B6
:10155000B0FBF1F018490860184800684FF4FA71C0
:10156000B0FBF1F01549086012480068401C1149B1
:101570000860E3E70F48006820B900200E490860C2
:101580000E4908600C4800680D49098808440A495A
:1015900008600A4800680B49098808440749086040
:1015A00004480068401C03490860FFF799FC00BF2D
:1015B000C4E70000280000202C000020300000209C
:1015C000340000203600002070B51F480068B0F5D8
:1015D000FA7F00D870BDFFF76FFC1C4909881C4AD0
:1015E0001288891A08B21B49FFF710FD05461A49EF
:1015F00009881A4A1288891A08B21949FFF706FDA4
:101600000446002D06DDA8B2FFF75AFD0020FFF7C3
:1016100065FD06E00020FFF753FD694288B2FFF741
:101620005DFD002C06DDA0B2FFF766FD0020FFF790
:1016300071FD06E00020FFF75FFD614288B2FFF711
:1016400069FD00BFC6E7000028000020340000202C
:101650002C00002044000020360000203000002034
:101660005C000020042808D14FF0E021096941F016
:1016700004014FF0E022116107E04FF0E021096919
:1016800021F004014FF0E0221161704710B5FFF71F
:10169000B5F910BD10B51348006840F001001149BC
:1016A000086008464068104908400E4948600846EE
:1016B00000680E4908400B4908600846006820F49D
:1016C000802008600846406820F4FE0048604FF41F
:1016D0001F008860FFF7B7FE4FF000600449086004
:1016E00010BD0000001002400000FFF8FFFFF6FEF2
:1016F00008ED00E070B504465CB30420FFF7B2FFCC
:101700001A4800684FF4FA72B0FBF2F1B1F1807F31
:1017100000D31DE021F07F40401E4FF0E0225061D9
:1017200050170F22002807DA13071E0E104B00F087
:101730000F052D1F5E5503E013071D0E0D4B1D54A5
:1017400000BF00204FF0E02290610720106100BF31
:101750000AE04FF0E020006920F003004FF0E021A4
:10176000086100204861886170BD00000000002011
:1017700018ED00E000E400E021B1028842F08002B0
:10178000028004E002884FF67F731A40028070479F
:1017900021B1028842F00102028004E002884FF683
:1017A000FE731A400280704710B5044668488442B0
:1017B00008D10121C014FFF7CBFD0021E014FFF791
:1017C000C7FDC4E0B4F1804F08D101210846FFF7FE
:1017D0009FFD00210120FFF79BFDB8E05D4884429A
:1017E00008D101210220FFF793FD00210220FFF71D
:1017F0008FFDACE05848844208D101210420FFF756
:1018000087FD00210420FFF783FDA0E053488442B8
:1018100008D101210820FFF77BFD00210820FFF7F8
:1018200077FD94E04E48844208D101211020FFF753
:101830006FFD00211020FFF76BFD88E049488442CE
:1018400008D101212020FFF763FD00212020FFF7B0
:101850005FFD7CE04448844208D101214014FFF739
:1018600077FD00216014FFF773FD70E03F4884426C
:1018700009D10121C804FFF76BFD00214FF40020BE
:10188000FFF766FD63E03A48844209D1012108056B
:10189000FFF75EFD00214FF48010FFF759FD56E081
:1018A0003448844209D101214805FFF751FD002148
:1018B0004FF40010FFF74CFD49E02F48844208D157
:1018C00001214020FFF724FD00214020FFF720FDEB
:1018D0003DE02A48844208D101218020FFF718FD0D
:1018E00000218020FFF714FD31E02548844208D113
:1018F00001218015FFF70CFD0021A015FFF708FD61
:1019000025E02048844209D101210804FFF720FD89
:1019100000214FF48030FFF71BFD18E01A48844285
:1019200009D101214804FFF713FD00214FF40030D5
:10193000FFF70EFD0BE01548844208D10121880411
:10194000FFF706FD00214FF48020FFF701FD10BDD9
:10195000002C01400004004000080040000C004042
:10196000001000400014004000340140004C0140D1
:10197000005001400054014000180040001C00408D
:101980000020004000400140004401400048014068
:1019900070B5002400220023058C4FF6FE763540FA
:1019A0000584028C8388048B4FF68F752C40B51EFE
:1019B0002C400D882C43751E2A400D892A434D88E2
:1019C0002A43144DA8420BD0134DA84208D0134D02
:1019D000A84205D0124DA84202D0124DA84213D100
:1019E0004FF6F7752A404D892A434FF6FB752A407A
:1019F0008D882A434FF6FF652B404FF6FF552B404D
:101A00008D892B43CD892B4383800483CD888586A4
:101A1000028470BD002C01400034014000400140B0
:101A200000440140004801400A460021018B4FF666
:101A3000F7731940114301837047000070B500240B
:101A400000220023058C4FF6EF7635400584028C8A
:101A50008388048B48F6FF752C404FF6FF452C40D9
:101A60000D884FF6FF7606EA05252C434FF6DF7505
:101A70002A400D8906EA05152A434D8806EA051510
:101A80002A43154DA84202D0144DA8421DD14FF64D
:101A90007F752A404D894FF6FF7606EA05152A43E1
:101AA0004FF6BF752A408D8806EA05152A434FF682
:101AB000FF352B404FF2FF752B408D8906EA8505D7
:101AC0002B43CD8906EA85052B4383800483CD888B
:101AD0000587028470BD0000002C014000340140E5
:101AE0000A460021018B4FF2FF7319404FF6FF7336
:101AF00003EA0223194301837047000070B50024F4
:101B000000220023058C4FF6FF6635400584028CC9
:101B10008388848B4FF68F752C404FF6FC752C40D4
:101B20000D882C434FF6FF552A400D894FF6FF765E
:101B300006EA05252A434D8806EA05252A43154D60
:101B4000A84202D0144DA8421DD14FF2FF752A4081
:101B50004D894FF6FF7606EA05252A434FF6FF35F5
:101B60002A408D8806EA05252A434EF6FF752B404C
:101B70004DF6FF752B408D8906EA05152B43CD895F
:101B800006EA05152B4383808483CD8885870284EC
:101B900070BD0000002C0140003401400A460021C5
:101BA000818B4FF6F7731940114381837047000012
:101BB00070B5002200230024058C4EF6FF763540D8
:101BC0000584038C8488828B48F6FF752A404FF683
:101BD000FF452A400D884FF6FF7606EA05252A4381
:101BE0004DF6FF752B400D8906EA05352B434D88D0
:101BF00006EA05352B430B4DA84202D00A4DA842F8
:101C000008D14BF6FF752C408D894FF6FF7606EA1A
:101C100085152C4384808283CD88A0F840500384AE
:101C200070BD0000002C0140003401400A46002134
:101C3000818B4FF2FF7319404FF6FF7303EA0223C3
:101C40001943818370478186704701877047818778
:101C50007047A0F840107047002202881D4B984240
:101C60000ED01D4B98420BD0B0F1804F08D01B4BCB
:101C7000984205D01A4B984202D01A4B984204D190
:101C80004FF68F731A404B881A43174B984207D070
:101C9000164B984204D04FF6FF431A40CB881A43A4
:101CA00002808B8883850B8803850A4B98420BD072
:101CB000094B984208D00E4B984205D00D4B9842E4
:101CC00002D00D4B984201D10B7A03860123838207
:101CD00070470000002C0140003401400004004027
:101CE00000080040000C00400010004000140040BC
:101CF00000400140004401400048014021B1828978
:101D000042F40052828104E082894DF6FF731A404A
:101D1000828170471AB1838A0B43838202E0838AEF
:101D20008B4383827047F0B50346002400260025CC
:101D3000002040F66A17B94200D100BF1846C1F32F
:101D4000421401F01F06012707FA06F5012C01D104
:101D50000C3004E0022C01D1103000E014301AB134
:101D600007682F43076002E00768AF430760F0BDD4
:101D70002DE9F04786B005460E460024A24600BF76
:101D8000A1460027B08900B100BF2F462C8A4CF62F
:101D9000FF700440F08804432C82AC894EF6F310A7
:101DA0000440B08831890843718908430443AC81F9
:101DB000AC8A4FF6FF400440B0890443AC8201A8CE
:101DC000FFF7D6FA1F48874202D1DDF810A001E0E4
:101DD000DDF80CA0A88900F4004040B10AEBCA006D
:101DE00000EB0A1031684900B0FBF1F807E00AEB9C
:101DF000CA0000EB0A1031688900B0FBF1F86420DA
:101E0000B8FBF0F004012009642101FB1089A889C6
:101E100000F4004040B1322000EBC900B0FBF1F00B
:101E200000F00700044308E0322000EB09106421B1
:101E3000B0FBF1F000F00F0004432C8106B0BDE8C8
:101E4000F08700000038014000BFFEE700B591B008
:101E500001218803FFF76CFAFEF7FEFF4FF4E13033
:101E60000D900020ADF840000C20ADF83E00C00100
:101E7000ADF83C000020ADF83A004FF48050ADF8CA
:101E800038000DA93348FFF773FF01213148FFF7F0
:101E900035FF002240F225512E48FFF744FF252050
:101EA0008DF8300001208DF8330002208DF83100CC
:101EB0008DF832000CA8FFF771F80122C0212548E7
:101EC000FFF728FF01210846FFF702FA224890F8A1
:101ED000320004901020039000200B901E480290C6
:101EE0000020089080200690002009901948001DCD
:101EF00001900020079005904FF480500A901748F9
:101F0000FEF78CFD01A91548FEF72EFE6420049013
:101F1000002003900B90124802900020089080202F
:101F20000690202009900B48001D0190002007908A
:101F300005900A9009481430FEF770FD01A9074882
:101F40001430FEF711FE012104481430FEF75AFD4B
:101F500011B000BD0038014058020020440002408A
:101F6000F401002030380A2801D2012070470020F7
:101F70007047014600BF704700BF054A128802F053
:101F80004002002AF9D0C2B2014B1B1D1A807047D3
:101F900000380140FFF75AFFFEF7FCFA0120FFF777
:101FA000C9F842F21070FEF7FEFD4FF07E50164960
:101FB000086016484860164888604FF07E50154902
:101FC00008601248486012488860FEF705FD01204D
:101FD000FEF766FF0120FFF78DFB13E00A48007C47
:101FE00080B90C48007C68B90A48B0F9142006484A
:101FF000B0F9141008A0FEF70FF901200249087487
:1020000004490874EAE70000440000206F12033A14
:10201000000060405C0000202535647C2535640D9F
:102020000A00000090EA010F48BF81F0004100F172
:102030006281421A3CBF801A89184FEAD0524FF091
:102040007F4C1CEA410FA2EBD15318BF9CEA026FF0
:1020500000F03B804FF0004C4CEA00204CEA01219C
:1020600021FA03FC10EB0C0C1ED202F1FF325FEAE6
:102070001C2040EBC25038BF70471CF07F0F4FEA66
:10208000400C18BFBCF17F4F38BF7047C3F120032D
:10209000994008BF20F00100BCF17F4F38BF704766
:1020A000A0F1C04000F01BB94FEA3C00000A40EB31
:1020B000C25028BF1CF0FF0F4FEA400CE6D018BFFB
:1020C000BCF17F4F38BF7047EAE79CEA026F05D04A
:1020D00010EA5C0F08BF00F00040704710B500F038
:1020E000B8F800BF64FBBE3E41000B0ED3F19E0268
:1020F00008D950F400034FEA032323FA02F048BF43
:102100004042704710B500F0A4F800BF4992248007
:10211000002070476FF0004282EA20007047000004
:1021200010F0004148BF4042B0FA80F310FA03F2C9
:10213000C3F19D030BD051EAC35101EB12205306AA
:1021400038BF704700F1010008BF20F00100704760
:102150004FF47F0C1CEAD0121EBF1CEAD11392EA86
:102160000C0F93EA0C0F00F0478090EA010F48BF74
:1021700042F480724FF0004C4CEA00204CEA0121FE
:1021800002EB0302A0FB0113A2F50002002918BF15
:1021900043F001035B0028BF4FEA330342EB2242C6
:1021A0005FEA132C4CEBC2502EBFBCEB436FB2F571
:1021B0007C0F70474FEA036CBCF1004F08BF20F062
:1021C0000100B2F57C0F38BF70470BD582F0FF02DB
:1021D00012F5803FC8BF704700F1C040D8BF00F083
:1021E0000040704700F5000C5FEA4C0C48BF704798
:1021F000B0F1C04000F073B890EA010F0CEAD113BF
:1022000048BF42F48072624538BF634504D280EA19
:10221000010000F00040704710B500F01AF800BF50
:102220008900013E00F007B800F009B85FEA410CF0
:102230005FEA1C6C08D080EA010000F050B85FEA49
:10224000400C5FEA1C6CF6D14FF00040A0F5800016
:1022500070470EF1020E2EF0030E5EF8044B24427E
:1022600004D44FEA4102B2F17F4F11D84FEA400344
:10227000B3F17F4F0CD80ED14FEAD07CB2F17F4F33
:102280000CEB4C0C0CF1020C08BF4CEBD17C04E0C5
:102290004FF0080C01E04FEAD17C0CEB4C0324FA20
:1022A00003F404F00704B4F1040C06D20EEB840C22
:1022B000BDE810404CF0010C6047DFE80CF0070867
:1022C00002024FF00040A0F5800010BD0846420019
:1022D00018BFD2F1807288BF00F0004010BDFF210E
:1022E00041EAD050C005704790EA010F48BF81F025
:1022F00000413FF59EAE421A04D882F00042A0EBA6
:10230000020011444FEAD0524FF07F4C1CEA410FBB
:10231000A2EBD15318BF9CEA026F4AD04FF0004C99
:102320004CEA00204CEA012121FA03FCB0EB0C0C32
:102330000FD412F0FE0F36D05FEA4C001DD500120C
:1023400040EBC25038BF70471CF03F0F18BF7047BA
:102350000BE0A2F101025FEA1C2040EBC25038BF43
:1023600070471CF07F0F18BF7047C3F120039940DE
:1023700014BF401E20F00100704780084FEA12236E
:1023800008BF7047B0FA80FCA2EB0C02CCF1280C1D
:1023900060FA0CF093EA122F04BF00EBC2507047B2
:1023A0004FEAC3707047130A5FEADC1008BF70473A
:1023B000F6E79CEA026F04D010EA5C0F08BF002029
:1023C000704710B5FFF745FF40DFF63E81F0004053
:1023D00070470000F42300080000002044000000C3
:1023E0006C0100083824000844000020AC080000FC
:1023F0008801000800A24A0400000000000000005C
:10240000010203040607080900000000010203049A
:102410000102030406070809020406080000000080
:1024200000000000000000000000000000000000AC
:082430000000000000000000A4
:0400000508000131BD
:00000001FF
